:020000040000FA
:1000000002002E85A70A12001912002312016312A2
:100010000142120167850AA722E4F5A77597DE75EC
:0A00200097AD2275A57075D570220A
:10002B000200BA787FE4F6D8FD75810A02007502EA
:10003B000155E493A3F8E493A34003F68001F2087F
:10004B00DFF48029E493A3F85407240CC8C333C40A
:10005B00540F4420C8834004F456800146F6DFE475
:10006B00800B010204081020408090015EE47E01A9
:10007B009360BCA3FF543F30E509541FFEE493A3E8
:10008B0060010ECF54C025E060A840B8E493A3FAFA
:10009B00E493A3F8E493A3C8C582C8CAC583CAF086
:1000AB00A3C8C582C8CAC583CADFE9DEE780BEC064
:1000BB00E0C083C082C0D075D000C000C2CFE508BD
:1000CB00704DE509B4070050469000DBF828287303
:1000DB000200F00200F80200FC020100020108021B
:1000EB00010C020114D294C295C2968022C2948054
:1000FB0006C294800ED294D295C2968012C294807E
:10010B000AD294C295D2968006D294D295D296D327
:10011B00E5099406E50864809480500A0509E50911
:10012B00700A05088006750800750900D000D0D04C
:10013B00D082D083D0E032E5C8540453C8FB75CBD2
:10014B003875CA9E43C80442C822120003C2B4D2F7
:10015B00AF80FE020800000075E3402275A8A022C4
:00000001FF
