:1000000000800020C1040000ED040000ED040000A9
:10001000ED040000ED040000ED040000ED0400001C
:10002000ED040000ED040000ED040000ED0400000C
:10003000ED040000ED040000ED04000019270000AD
:10004000ED040000ED040000ED040000ED040000EC
:10005000ED040000ED040000ED040000ED040000DC
:10006000ED040000ED040000ED040000ED040000CC
:10007000ED040000ED040000ED040000ED040000BC
:10008000ED040000ED040000ED040000ED040000AC
:10009000ED040000ED040000ED040000ED0400009C
:1000A000ED040000ED040000ED040000ED0400008C
:1000B000ED040000ED040000ED040000ED0400007C
:1000C000ED040000ED04000010B5054C237833B9B1
:1000D000044B13B10448AFF300800123237010BD1B
:1000E0008000002000000000A02B0000084B10B58D
:1000F0001BB108480849AFF300800848036803B9FA
:1001000010BD074B002BFBD0BDE81040184700BFC7
:1001100000000000A02B0000840000207C000020D4
:1001200000000000154B002B08BF134B9D46A3F5A4
:10013000803A00218B460F461348144A121A02F0E7
:100140009DFB0F4B002B00D098470E4B002B00D08F
:1001500098470020002104000D000D48002802D01F
:100160000C48AFF3008002F063FB2000290002F08E
:10017000F7FA02F049FB00BF0000080000800020F1
:10018000000000000000000080000020A800002007
:10019000000000000000000080B485B000AF78606F
:1001A00039607B6803F1C063FB60FB683A681A60E2
:1001B0001437BD465DF8047B704700BF80B485B03E
:1001C00000AF786039607B6803F18063FB60FB6897
:1001D0003A681A601437BD465DF8047B704700BF6B
:1001E00080B582B000AF03463960FB71FB79002B0C
:1001F0001DD0FB79012B17D0FB79022B11D0FB7995
:10020000032B0BD0FB79042B06D0FB79052B01D1F6
:10021000FF230DE000230BE0002309E04FF47E43B1
:1002200006E04FF47C6303E04FF4784300E03F23A3
:100230003A68134103F00103002B04D10C4840F24B
:10024000593100F0F5F9FA7913465B0013441B01AC
:100250000C3303F1804303F520433A68012101FA8E
:1002600002F218461146FFF7A9FF0837BD4680BDC8
:10027000A828000080B582B000AF03463960FB714A
:10028000FB79002B1DD0FB79012B17D0FB79022BBA
:1002900011D0FB79032B0BD0FB79042B06D0FB7913
:1002A000052B01D1FF230DE000230BE0002309E023
:1002B0004FF47E4306E04FF47C6303E04FF4784351
:1002C00000E03F233A68134103F00103002B04D1FF
:1002D0000C4840F2863100F0ABF9FA7913465B0026
:1002E00013441B010C3303F1804303F520433A68A8
:1002F000012101FA02F218461146FFF74DFF0837B7
:10030000BD4680BDA828000080B582B000AF03467E
:100310003960FB71FB79002B1DD0FB79012B17D0C5
:10032000FB79022B11D0FB79032B0BD0FB79042B2B
:1003300006D0FB79052B01D1FF230DE000230BE054
:10034000002309E04FF47E4306E04FF47C6303E0B2
:100350004FF4784300E03F233A68134103F0010370
:10036000002B04D10A4840F29F3100F061F909499D
:10037000FA793B68012000FA03F3184613465B0044
:1003800013441B010B44183318600837BD4680BD69
:10039000A828000000A0004080B582B000AF12483D
:1003A000012100F07FFB1148012100F07BFB0023BD
:1003B0007B6011E00E4A7B6812F833100C4A7B68B0
:1003C000DB0013445B68084619460422002302F050
:1003D00011F87B6801337B607B68012BEADD002329
:1003E00018460837BD4680BD40410500002508007D
:1003F0000C29000080B582B000AF78607B68002BCC
:1004000011DB7B68012B0EDC0A4A7B6812F8331083
:10041000084A7B68DB0013445B6808461946FFF70F
:10042000DFFE002301E04FF0FF3318460837BD46DA
:1004300080BD00BF0C29000080B582B000AF78609D
:100440007B68002B11DB7B68012B0EDC0A4A7B6882
:1004500012F83310084A7B68DB0013445B680846D7
:100460001946FFF707FF002301E04FF0FF3318465E
:100470000837BD4680BD00BF0C29000080B582B0A2
:1004800000AF78607B68002B11DB7B68012B0EDCF2
:100490000A4A7B6812F83310084A7B68DB00134471
:1004A0005B6808461946FFF72FFF002301E04FF075
:1004B000FF3318460837BD4680BD00BF0C29000039
:1004C000064880470649074A074B9A42BEBF51F883
:1004D000040B42F8040BF8E7FFF724FED1050000F7
:1004E000AC2B00000000002080000020FEE700BFD1
:1004F00080B582B000AF00F027F878600A4BD3F8DF
:1005000008210A4B13401B0A3B603B6801337A68A1
:10051000B2FBF3F37B60064A7B6813607B68184686
:100520000837BD4680BD00BF00400E4000FF0100FF
:100530000800002080B400AF024B1846BD465DF8AD
:10054000047B7047005A620280B483B000AF164B40
:10055000D3F8943003F00703032B08D0042B02D008
:10056000022B08D00BE0114B1B687B600BE04FF4B3
:1005700000437B6007E00E4B1B687B6003E00D4B84
:100580001B687B6000BF084BD3F8003103F4F853BD
:100590001B0A01337A68B2FBF3F318460C37BD46E9
:1005A0005DF8047B704700BF00400E40040000204F
:1005B000000000200C00002080B400AF034B1B683B
:1005C0001846BD465DF8047B704700BF0000002060
:1005D00080B400AF054A054BD3F8883043F470036C
:1005E000C2F88830BD465DF8047B704700ED00E03E
:1005F00080B400AF4FF400431846BD465DF8047B5D
:10060000704700BF80B400AF4FF47A731846BD4600
:100610005DF8047B704700BF80B400AF034B1B68DC
:100620001846BD465DF8047B704700BF04000020FB
:1006300080B483B000AF78603960FEE780B487B0E3
:1006400000AFF860B9607A60FB6803F10473DA0008
:10065000BB6813449B007B617B697A681A601C3716
:10066000BD465DF8047B704780B485B000AF78600C
:1006700039607B6803F10473DA003B6813449B0024
:10068000FB60FB681B6818461437BD465DF8047BA9
:10069000704700BF80B483B000AF78607B680122F0
:1006A00002FA03F318460C37BD465DF8047B704729
:1006B00080B584B000AF78600123FB607B68124A8C
:1006C000934204D80023FB600023BB6008E07B68F2
:1006D0000E4A934202D80123BB6001E00223BB60B3
:1006E0000B481021FA68FFF7A9FF0949084BD3F816
:1006F000003123F08072BB681B061343C1F8003140
:100700001037BD4680BD00BF0048E8010090D0030F
:1007100000400E4080B483B000AF054B1B687B6087
:100720007B6818460C37BD465DF8047B704700BFF8
:100730001000002080B582B000AFFFF705FF7860A1
:10074000064BD3F8003103F4F8531B0A01337A68DF
:1007500002FB03F318460837BD4680BD00400E403B
:1007600080B582B000AF0F4800F0DAFA0346FB70A4
:10077000FB78072B05D0092B07D1FFF7E5FE786042
:100780000BE0FFF7C7FF786007E007484FF4E3711D
:10079000FFF74EFF00237B6000BF7B6818460837D9
:1007A000BD4680BD06000C008029000080B584B0E5
:1007B00000AF78607B68002B1CD1204800F0B0FAB5
:1007C0000346FB7200BFFB7A013B072B28D801A22E
:1007D00052F823F00308000021080000210800005F
:1007E000110800002108000021080000090800008D
:1007F00019080000124840F2E711FFF719FF002323
:1008000017E00023FB6013E0FFF784FFF8600FE0C0
:10081000FFF7D2FEF8600BE0FFF78CFFF86007E00F
:10082000074840F2FD11FFF703FF0023FB6000BF04
:10083000FB6818461037BD4680BD00BF98002E00EB
:100840008029000080B485B000AF78603960194B12
:100850001B6C002B14BF01230023FB72154B41F6C8
:1008600071321A64134B5B6803F04073FB607B6862
:10087000114A934202D80023FB6005E07B680F4ACF
:10088000934201D80123FB60FB681B06FB6009490A
:10089000084B5B6823F04072FB6813434B60FB7AA4
:1008A000002B02D0034B00221A641437BD465DF8BA
:1008B000047B704700000E4080BA8C01005A62022F
:1008C00080B500AFFFF736FE034618460021FFF75C
:1008D000B9FF80BD80B582B000AF786039607868BC
:1008E0003968FFF7AFFF0837BD4680BD80B487B0D9
:1008F00000AF78600F237B617B6803333B617B69CA
:10090000FB60FA683B69934228BF1346BB60BB6833
:100910001B07BB60BB6818461C37BD465DF8047BEF
:10092000704700BF80B400AF044B5B6A03F0300334
:100930001846BD465DF8047B704700BF00400E407E
:1009400080B483B000AF78600649064B5B6A23F041
:1009500030027B6813434B620C37BD465DF8047B65
:10096000704700BF00400E4090B585B000AF786082
:100970000023BB607B68384A93420BD0374A9342CE
:1009800008D0374A934205D0364840F2B531FFF7D8
:100990004FFE00E000BF786800F0C2F90346FB603C
:1009A0007B682D4A93420CD02C4A934210D02C4A9B
:1009B000934214D12C4BD3F8803003F00703FB6033
:1009C00013E0294BD3F8843003F00703FB600CE0FD
:1009D000254BD3F8883003F00703FB6005E021487E
:1009E0004FF47971FFF724FE00BFFB68042B2ED86B
:1009F00001A252F823F000BF490A00000D0A0000CE
:100A0000150A0000250A00001D0A0000FFF7F0FD8E
:100A1000B8601CE0FFF700FEB86018E0FFF7F2FDD9
:100A2000B86014E0FFF764FD04460F4BD3F80031C3
:100A300003F080731B0E01331846FFF72BFE0346AD
:100A4000B4FBF3F3BB6002E00023BB6000BFBB68F4
:100A500018461437BD4690BD03001C000500200059
:100A600002001A008029000000400E4080B483B0CC
:100A700000AF78600A4BD3F8443103F00103002B38
:100A800000D007E000BF064BD3F840217B6813403D
:100A9000002BF8D10C37BD465DF8047B704700BFD2
:100AA00000400E4080B586B000AF78600B46FB700A
:100AB00000233B617B681B0A03F00F03013B092BFA
:100AC00032D801A252F823F0F10A0000FD0A00001A
:100AD000290B0000290B0000F70A0000030B00009F
:100AE0000D0B0000290B0000170B0000230B00006A
:100AF0001A4B7B611EE01A4B7B611BE0194B7B613B
:100B000018E0194B7B6101233B6113E0174B7B61BC
:100B100010233B610EE0164B7B614FF480333B6149
:100B200008E0144B7B6105E013484FF4FB61FFF7CD
:100B30007FFD10E07B681B0B03F01F03FB603B692C
:100B4000002B02D03869FFF791FFFB787869F968CC
:100B50001A46FFF773FD1837BD4680BD00400E40B2
:100B6000B0400E40C0400E40E0400E40E8400E4015
:100B7000F0400E4050410E408029000080B584B006
:100B800000AF78607B6803F47813B3F5602F00F052
:100B9000A580B3F5602F16D8B3F5802F31D0B3F50B
:100BA000802F05D8002B28D0B3F5003F3CD09EE025
:100BB000B3F5202F47D0B3F5402F00F08B80B3F56D
:100BC000002F2DD093E0B3F5D01F4BD0B3F5D01F3D
:100BD00009D8B3F5A01F4FD0B3F5B01F63D0B3F55C
:100BE000901F44D083E0B3F5001F6ED0B3F5381FDB
:100BF00078D0B3F5E01F51D079E0FFF7A5FCF8609D
:100C00007DE0FFF7A1FCF8603F4BD3F80C213F4B90
:100C100013401B0A0133FA68B2FBF3F3FB606EE08A
:100C2000FFF792FCF8606AE0FFF78EFCF860364B45
:100C3000D3F80821354B13401B0A0133FA68B2FB85
:100C4000F3F3FB605BE0FFF77FFCF8602E4BD3F81B
:100C5000143103F4F8531B0A0133FA68B2FBF3F3BF
:100C6000FB604CE02A48FFF77FFEF86047E0294828
:100C7000FFF77AFEF86042E02548FFF775FEF8605E
:100C8000214BD3F8203103F00F031846FFF702FD84
:100C90000246FB68B3FBF2F3FB6030E01E48FFF74F
:100CA00063FEF8602BE01C48FFF75EFEF860164B11
:100CB000D3F8283103F003031846FFF7EBFC024694
:100CC000FB68B3FBF2F3FB6019E01248FFF74CFE40
:100CD000F86014E0FFF744FDF86010E0FFF71AFD3C
:100CE000F8600CE00020FFF761FDF86007E00B48BA
:100CF00040F6CC01FFF79CFC0023FB6000BFFB68C3
:100D000018461037BD4680BD00400E4000FF010070
:100D100002001A000500200003001C0080290000CA
:100D200080B584B000AF78600123FB737B6803F06B
:100D30000F03BB60BB68013B072B00F2AD8001A233
:100D400052F823F0650D0000970D0000C70D00005C
:100D5000990E00000D0E00003D0E0000990E0000DF
:100D60005D0E0000534BD3F8943003F00703032BC0
:100D700007D0042B02D0022B06D008E00223FB731D
:100D800008E00323FB7305E00423FB7302E0052363
:100D9000FB7300BF88E0474BD3F8803003F00703B4
:100DA000022B06D0042B07D0012B08D10323FB73A1
:100DB00008E00223FB7305E00A23FB7302E0012332
:100DC000FB7300BF70E03B4BD3F8843003F00703A4
:100DD000013B032B16D801A252F823F0ED0D0000C1
:100DE000F30D0000FF0D0000F90D00000323FB735D
:100DF0000BE00223FB7308E00A23FB7305E00623E4
:100E0000FB7302E00123FB7300BF4DE0294BD3F8D5
:100E1000883003F00703022B06D0042B07D0012BE8
:100E200008D10323FB7308E00223FB7305E00A23C8
:100E3000FB7302E00123FB7300BF35E01D4B1B6F0A
:100E400003F00103002B05D0012B00D02CE0092377
:100E5000FB7302E00723FB7300BF25E0154BD3F8BB
:100E60005C3103F03003102B0CD0102B02D8002B78
:100E700005D019E0202B08D0302B09D014E0012335
:100E8000FB7308E00723FB7305E00423FB7302E018
:100E90000823FB7300BF07E007484FF44761FFF7E3
:100EA000C7FB0023FB7300BFFB7B18461037BD4612
:100EB00080BD00BF00400E408029000080B588B092
:100EC00000AF78600B46FB700323FB610323FB76C6
:100ED00000233B617B6803F00F03FB60FB68013B71
:100EE000072B00F22F8101A252F823F00D0F000012
:100EF000C10F0000FD0F000045110000DF0F0000D2
:100F00009D10000045110000C7100000FB78023B57
:100F1000082B35D801A252F823F000BF410F000082
:100F20004B0F0000550F0000650F0000810F0000FF
:100F3000810F0000810F0000810F0000750F00007D
:100F40000423FB610023FB7620E00323FB610123E4
:100F5000FB761BE00223FB610223FB767E48FFF752
:100F6000A7FB13E00123FB610323FB767A48FFF71D
:100F70009FFB0BE0794840F61451FFF759FBE7E07F
:100F8000764840F61951FFF753FBE1E0FB7E184627
:100F90000121012200F078F9FFF792FC704AFB6909
:100FA00053677048FFF7EAFD03461846FFF780FBDA
:100FB000FFF79EFAB860B8680021FFF78BFCC7E026
:100FC0003B69002B01D03B6900E0674B3B61FB783C
:100FD000062B04D1614840F64B51FFF729FB3B69D2
:100FE000002B01D03B6900E0604B3B61FB78062B96
:100FF00004D15A4840F65D51FFF71AFB3B69002BBC
:1010000001D03B6900E05A4B3B61FB78013B092B67
:101010003AD801A252F823F0411000004710000016
:1010200057100000891000008910000067100000B0
:101030008910000089100000891000008310000052
:1010400000237B6126E000200121012200F01CF931
:1010500002237B611EE001200121012200F014F92E
:1010600001237B6116E0FFF743FA03461846FFF7BA
:101070001FFB404800210122FFF7E0FA03237B61B8
:1010800008E004237B6105E0344840F68951FFF70E
:10109000CFFA5DE03B697A691A6059E0FB78072B6B
:1010A00002D0092B04D007E02D4B00221A6709E07B
:1010B0002B4B01221A6705E0284840F61361FFF721
:1010C000B7FA45E044E0FB78013B072B28D801A2A2
:1010D00052F823F0F510000021110000211100004A
:1010E0000B1100002111000021110000FB10000075
:1010F0001B11000000237B6118E004200121012264
:1011000000F0C2F801237B6110E0022001210122DE
:1011100000F0BAF802237B6108E003237B6105E05D
:101120000E4840F67161FFF783FA11E00C490C4B51
:10113000D3F85C3123F030027B691B011343C1F803
:101140005C3105E0054840F62771FFF771FA00BFF2
:101150002037BD4680BD00BF0148E801802900005E
:1011600000400E400005080080400E4088400E40C0
:1011700084400E40B0400E40B0B584B000AF7860FF
:101180001120FFF7CDFD0346042B04D13B4841F26B
:101190009C11FFF74DFA02200021012200F074F8A3
:1011A0007B685B78002B07D17B689B78002B03D191
:1011B0007B68DB78002B04D0304841F2CE11FFF77A
:1011C00037FA0023FB607B681B7C012B04D12B4882
:1011D00041F2D311FFF72CFA7B681B7C022B01D163
:1011E0000123FB602649264B5B6A23F00102FB6862
:1011F00013434B627B681B78224808211A46FFF78D
:101200001DFA1F491E4B9B6A23F007037A68D27AA6
:1012100013438B621A497B689B88DB027A68527A97
:101220001343CB62164D164B1B6B03F07F637A683A
:10123000D288D20213437A68927A13437A68127A78
:10124000D20143EA02047B681B7A1846FFF74EFB83
:10125000034623432B630A497B685B7B1A037B6845
:101260009B7B1B0113437A68D27B1A437B681B7BF1
:101270001B0413434B631037BD46B0BD80290000EB
:1012800000400E4024400E4080B588B000AF0346B9
:10129000FB710B46BB7113467B71FB79042B3CD869
:1012A00001A252F823F000BF05130000F312000062
:1012B000CF120000BD120000E112000001237B618B
:1012C00002233B610123FB610023BB612BE004236C
:1012D0007B6108233B610323FB610223BB6122E0A6
:1012E00010237B6120233B610523FB610423BB6149
:1012F00019E040237B6180233B610723FB610623C8
:10130000BB6110E04FF480737B614FF400733B616D
:101310000923FB610823BB6105E0384841F2CC2179
:10132000FFF786F967E0BB79002B59D00023FB73E8
:10133000FB79022B0FD1FFF7F5FA0346002B0AD1F8
:101340000123FB732E4B5B6A03F00103002B02D0D9
:101350000120FFF7F5FA2A4A7B69136600BF294886
:10136000B969FFF781F90346002BF8D07B79002B90
:1013700035D000BF2348F969FFF776F90346002B03
:10138000F8D0FB79022B2AD1FB7B002B27D01C4BFA
:101390005B6A03F00103002B05D00220202101220B
:1013A00000F070F903E00220002100F013F90220A0
:1013B00000F02AF8B860022000210122FFF764FF44
:1013C0000220B96800F05EF80D4A7B69136600BF21
:1013D0000C48F969FFF748F90346002BF8D00AE0FA
:1013E000074A3B69136600BF0648B969FFF73CF935
:1013F0000346002BF8D12037BD4680BD8029000070
:1014000000400E4090400E4080B584B000AF0346CF
:10141000FB71FB79013B032B23D801A252F823F087
:1014200031140000551400003D1400004914000060
:10143000124B1B6AC3F30803FB601AE00F4B1B69D6
:1014400003F07F03FB6014E00C4B9B6903F07F0308
:10145000FB600EE0094BD3F89C30C3F30A03FB603A
:1014600007E0074841F24931FFF7E2F80023FB604B
:1014700000BFFB6818461037BD4680BD00400E40D7
:101480008029000080B584B000AF03463960FB714D
:10149000FB79013B032B00F28C8001A252F823F070
:1014A000B114000065150000F11400002B150000B8
:1014B0003B68B3F5007F04D3424841F27031FFF737
:1014C000B7F83B68C3F308033B6000BF3E481A21EE
:1014D000FFF7CAF80346002BF8D13C493B4B1B6A87
:1014E00023F4FF7323F001033A6813430B6266E0B1
:1014F0003B687F2B04D9334841F27B31FFF798F8E2
:101500003B6803F07F033B6000BF2F481821FFF7C3
:10151000ABF80346002BF8D12C492C4B1B6923F068
:101520007F023B6813430B6149E03B687F2B04D982
:10153000244841F29531FFF77BF83B6803F07F03C5
:101540003B6000BF20481921FFF78EF80346002BAF
:10155000F8D11E491D4B9B6923F07F023B68134362
:101560008B612CE0194BD3F8903003F00403002B6F
:1015700004D0144841F2A331FFF75AF8134A134B31
:101580005B6A23F0300343F0100353623B6803F4BB
:10159000F063DB091846FFF7A9F9F8600B490B4B1C
:1015A0001A6B0B4B13403A681A43FB6813430B63E7
:1015B00005E0044841F2BD31FFF73AF800BF1037AB
:1015C000BD4680BD8029000040410E4000400E40D5
:1015D00000F8FF0F80B584B000AF03460A46FB71E8
:1015E0001346BB71FB79022B04D0234841F2D5315D
:1015F000FFF71EF8FFF796F90346002B03D14FF4CF
:101600004003FB601AE0BB79202B04D0302B0AD0BA
:10161000002B04D00BE04FF40003FB600EE04FF40E
:101620004003FB600AE04FF44003FB6006E0134B0D
:10163000FB60114841F2F031FEF7FAFF00BF104B9A
:10164000D3F89020FB681A40FB689A42F7D1FB68F8
:1016500003F48003002B0AD0094BD3F8A03003F425
:101660008063002B14BF01230023DBB200E00123C1
:1016700018461037BD4680BD80290000FF03E107F2
:1016800000400E4080B582B000AF0346FB710B46B0
:10169000BB7113467B71FB79022B16D1BB79002BF2
:1016A00007D00F4B4FF48062C3F8A8200C4ABB79D7
:1016B00053667B79002B07D0FA79BB79104619461F
:1016C000FFF788FF034606E004E0064841F22441A4
:1016D000FEF7AEFF012318460837BD4680BD00BFA8
:1016E00000400E408029000080B487B000AFF86051
:1016F000B9607A60FB6803F10473DA00BB681344D5
:101700009B007B617B697A681A601C37BD465DF877
:10171000047B704780B485B000AF786039607B6827
:1017200003F10473DA003B6813449B00FB60FB6821
:101730001B6818461437BD465DF8047B704700BF30
:1017400080B400AF034B1B6DDBB21846BD465DF89D
:10175000047B7047B081E00F80B588B000AF2A4BA2
:10176000FB612A4BBB612A4B7B612A4B3B612A4BB5
:10177000FB602A4BBB602A4BD3F86C31B3F1FF3FBF
:1017800037D0FB695B687B60FB691B683B603B682B
:101790007A681A60BB695B687B60BB691B683B60E9
:1017A0003B687A681A607B695B687B607B691B6851
:1017B0003B603B687A681A603B695B687B603B69A9
:1017C0001B683B603B687A681A60FB685B687B60FB
:1017D000FB681B683B603B687A681A60BB685B68A3
:1017E0007B60BB681B683B603B687A681A600123BA
:1017F00005E00C484FF4A861FEF71AFF00231846D5
:101800002037BD4680BD00BF3880E00F4080E00F2C
:101810004880E00F5080E00F5880E00F6080E00FBC
:10182000B081E00FE429000080B584B000AF244A05
:10183000234BDB6E43F08073D36622480021FFF711
:1018400069FFF860FB68002B03D0042000F0EAFC7D
:1018500002E0002000F0E6FC194A194B1B6E23F051
:10186000C0431366164A164BDB6C43F00603D36481
:101870003B1D184600F062FE7B79012B1DD13B79A0
:10188000022B1AD8104B1B78002B16D10F4A0F4B86
:101890001B6843F001031360094B1B6EBB60BA6801
:1018A0000B4B1340BB60BA680A4B1343BB60044A3E
:1018B000BB681366044B01221A701037BD4680BD09
:1018C00000300E404C300E409C00002044300E4052
:1018D000000F0EF0B4C0400B80B58AB000AF0123FA
:1018E0007B627B6A1B053B62414BDB6C03F47063DC
:1018F0001B0AFB613F4B1B8803F128023D4B1B88F1
:101900002833D90F0B445B1013441946FB695A1C4A
:1019100013469B001344B1FBF3F3013BBB61BB696E
:101920007B6107233B613A697B69934228BF134679
:10193000BB61BB691B06BB61BB6923F0E063002B85
:1019400004D02D4840F2B351FEF772FE3B6A23F4F7
:10195000E003002B04D0284840F2B451FEF768FEA3
:101960002348234BDB6C23F0EE62B9693B6A0B43DF
:101970001343C364214B1B881BB2002B35DB1F4B69
:101980001B88FB81FB8903F12802FB892833D90FCF
:101990000B445B1013441946FB6901335A00FB6981
:1019A00001335B081344B1FBF3F3BB60BB687B609E
:1019B00007233B603A687B68934228BF1346BB60AD
:1019C000BB681B01BB60BB6823F07003002B04D015
:1019D000094840F2CB51FEF72BFE0549044B1B6D25
:1019E00023F07002BB6813430B652837BD4680BDEA
:1019F00000300E409E000020E4290000A2000020DC
:101A000080B483B000AF78600B467B807B689AB26D
:101A1000044B1A80044A7B8813800C37BD465DF85E
:101A2000047B70479E000020A200002080B582B099
:101A300000AF0346FB71FB79002B02D0012B04D0D1
:101A400007E0084B084A9A6509E0064B074A9A6581
:101A500005E0074840F2F751FEF7EAFD00BF0837FE
:101A6000BD4680BD00300E4077402057372110B76B
:101A7000E429000080B584B000AF0346FB710B463B
:101A8000BB7113467B71FFF75BFE0346FB72FB7A6B
:101A9000032B10D82E4BD3F87C31FB60FB79002B45
:101AA00005D0FB6803F47F431B0AFB6031E0FB6851
:101AB000DBB2FB602DE0264BD3F88031FB60BB79B5
:101AC000032B1FD801A252F823F000BFDD1A00003B
:101AD000E51A0000F11A0000FD1A0000FB68DBB2F5
:101AE000FB6016E0FB6803F47F431B0AFB6010E019
:101AF000FB6803F47F031B0CFB600AE0FB681B0E12
:101B0000FB6006E0134840F23B61FEF791FD0023C5
:101B10001AE07B79002B16D1FB681B03FB60FB6886
:101B200023F47043002B06D00A4840F24661FEF7CA
:101B30007FFD002308E00849074BDB6E23F4704269
:101B4000FB681343CB66012318461037BD4680BDA2
:101B5000B081E00FE429000000300E4080B588B06D
:101B600000AFF860B96011461A460B46FB71134688
:101B7000BB710023FB610023BB61BB791A02FB79B7
:101B800013437B617B6940F2011293422BD0B3F582
:101B9000817F07D2012B19D0012B4BD3B3F5807F66
:101BA00055D07BE040F20122934229D040F201223D
:101BB000934203D8B3F5007F56D06FE0B3F5407F72
:101BC0005FD040F20132934227D067E03B4BD3F81D
:101BD0007431FB61FB6903F47F431B0ABB61FB6942
:101BE000DBB2FB6160E0354BD3F87431FB61FB691C
:101BF0001B0EBB61FB6903F47F031B0CFB6153E00D
:101C00002E4BD3F87831FB61FB6903F47F431B0A49
:101C1000BB61FB69DBB2FB6146E0284BD3F878314E
:101C2000FB61FB691B0EBB61FB6903F47F031B0CAB
:101C3000FB6139E0214BD3F86C31FB61FB6903F4A4
:101C40007F431B0ABB61FB69DBB2FB612CE01B4BD2
:101C5000D3F86C31FB61FB691B0EBB61FB6903F4BC
:101C60007F031B0CFB611FE0144BD3F87031FB6149
:101C7000FB6903F47F431B0ABB61FB69DBB2FB61B9
:101C800012E00E4BD3F87031FB61FB691B0EBB6198
:101C9000FB6903F47F031B0CFB6105E0084840F27D
:101CA000B761FEF7C5FC00BFFB68FA691A60BB6844
:101CB000BA691A602037BD4680BD00BFB081E00F11
:101CC000E429000080B584B000AF0346FB7100BF7B
:101CD000274B9B6F03F00103002BF9D1244B1B6CA6
:101CE00003F00303FB60FB68002B04D021480D21A7
:101CF0000122FFF7F9FCFB68DBB2FA799A4209D1BD
:101D0000FB79002B05D11B480D210022FFF7ECFCCD
:101D10002AE029E0FB68002B05D1FB79012B02D1D9
:101D2000154B02221A7000BF114B9B6F03F0010389
:101D3000002BF9D10E490E4B1B6C23F00302FB79EB
:101D400013430B6400BF0A4B9B6F03F00103002B8E
:101D5000F9D1FB79002B14BF01230023DBB2054826
:101D60000D211A46FFF7C0FC1037BD4680BD00BFED
:101D700000300E4054300E409C00002080B584B0EE
:101D800000AF78605D4B02229A635C4B9B6B03F063
:101D90000F03022B06D05A4840F24571FEF748FC6B
:101DA0000023A7E0FFF7D8FC7B681B89C82B04D968
:101DB000534840F24F71FEF73BFC7B689A887B6882
:101DC0001B899A4204D94E484FF4EA61FEF730FC71
:101DD0007B689B891BB2C82B04DD494840F25171D6
:101DE000FEF726FC7B685B78012B08D17B689B881B
:101DF000C82B04D9424840F25571FEF719FC7B68A4
:101E0000DB8842F21072934204D93D4840F25F7180
:101E1000FEF70EFC7B68DB884A2B02D80023FB60B0
:101E200015E07B68DB88B3F5FA7F03D24FF080536F
:101E3000FB600CE07B68DB8840F6C312934203D85A
:101E40004FF00053FB6002E04FF04053FB602B4823
:101E50002A4BDB6C23F0405323F001037A6892890C
:101E600012B2002A01DB012100E00021FA680A43D6
:101E70001343C364FFF7D8FC7B681B891A467B6851
:101E80009B891BB210461946FFF7BAFD7B689A88FA
:101E90001C4B1A807B689B88184600F04FF97B68C2
:101EA0009B7B1846FFF7C2FD7B685B8818460121C3
:101EB000012200F02BF8034683F00103DBB2002B74
:101EC00006D00F4840F29671FEF7B2FB002311E0F6
:101ED0007B689B7A002B14BF01230023DBB20A48E6
:101EE00005211A46FFF700FC7B685B781846FFF770
:101EF000E9FE012318461037BD4680BD00300E4074
:101F0000E4290000A00000203C300E4080B590B0D5
:101F100000AF78600B46FB701346BB700023FB6379
:101F200000237B6300233B6200237B620023BB61B1
:101F30000023FB6100233B6100237B610023BB8105
:101F40007B68B3F5E16F06D37B6840F6B832934205
:101F500001D8012300E0002387F8333097F83330AD
:101F600003F0010387F8333097F8333083F001032F
:101F7000DBB2002B06D06E4840F2DA71FEF758FB58
:101F80000023D0E07B68B3F5E16F8CBF0123002311
:101F900087F8323097F83230002B0AD04FF4E163E3
:101FA000FB6340F6B8337B637A6BFB6BD31ABB637E
:101FB00009E04FF49663FB634FF4E1637B637A6B54
:101FC000FB6BD31ABB6397F83230002B0CD0594B04
:101FD000D3F86831FB61FB691B0E7B61FB6903F47D
:101FE0007F031B0CFB610BE0524BD3F86831FB61A4
:101FF000FB6903F47F431B0A7B61FB69DBB2FB6176
:102000004D4BDB6C03F040531B0FDBB23B733B7B50
:1020100007F1180007F1100197F83220FFF79EFD35
:102020007A68FB6BD31A7969FA698A1A02FB03F2A0
:10203000BB6BB2FBF3F37B627A6AFB6913447B628E
:102040007A68FB6BD31A3969BA698A1A02FB03F200
:10205000BB6BB2FBF3F33B623A6ABB6913443B626E
:102060007A6A7B699A420BD87A6AFB699A4207D3EB
:102070003A6A3B699A4203D83A6ABB699A4206D2E5
:102080002B4840F62601FEF7D3FA00234BE0BB783D
:10209000002B12D02849284BDB6D23F4FE4323F09C
:1020A00002037A6A12021A4397F83230002B01D0E9
:1020B000022300E000231343CB65FB78002B31D0D3
:1020C0003B7B97F83220104619460022FFF7D2FCDE
:1020D000034683F00103DBB2002B06D0144840F620
:1020E0003501FEF7A5FA00231DE03B6AFB62E723FA
:1020F000BB62BA6AFB6A934228BF13463B620E4931
:102100000D4B5B6E23F4FF7323F001033A6A520018
:102110001A4397F83230002B01D0012300E000234E
:1021200013434B66012318464037BD4680BD00BFB0
:10213000E4290000B081E00F00300E4080B584B08B
:1021400000AF78600023FB60344B1B6F03F0070384
:10215000BB60324BDB6C03F00103002B15D0BB6876
:10216000012B12D97B68132B02D80423FB600BE0F0
:102170007B68132B05D97B68272B02D80823FB60CB
:1021800002E01023FB6033E032E0244BDB6C03F011
:102190000103002B15D1BB68012B12D87B68092BDA
:1021A00002D80423FB600BE07B68092B05D97B6810
:1021B000132B02D80823FB6002E01023FB6017E01A
:1021C00016E0164BDB6C03F00103002B0BD0BB6851
:1021D000012B08D87B68272B02D80823FB6007E077
:1021E0001023FB6004E00E4840F67801FEF720FA69
:1021F000FB68013BFB60FB681A02FB681B0313438F
:10220000FB600649054BDB6C23F47F42FB681343FC
:10221000CB64FFF761FB1037BD4680BD00300E4038
:10222000E429000080B584B000AF0346FB7111487B
:102230000021FFF76FFAF860FB68002B02D1FB79F1
:10224000012B07D9FB68002B04D10B4840F69601FF
:10225000FEF7EEF90949094B1B6F23F00702FB79E2
:1022600013430B67064B1B881846FFF767FF1037B1
:10227000BD4680BD4C300E40E429000000300E40C9
:10228000A000002080B485B000AF786039607B6822
:1022900003F1C063FB60FB683A681A601437BD46FF
:1022A0005DF8047B704700BF80B485B000AF7860F4
:1022B00039607B6803F18063FB60FB683A681A60F1
:1022C0001437BD465DF8047B704700BF80B582B00F
:1022D00000AF03463960FB71FB79002B1DD0FB7901
:1022E000012B17D0FB79022B11D0FB79032B0BD0DC
:1022F000FB79042B06D0FB79052B01D1FF230DE0E0
:1023000000230BE0002309E04FF47E4306E04FF486
:102310007C6303E04FF4784300E03F233A681341C5
:1023200003F00103002B04D10C4840F25931FEF7B1
:102330007FF9FA7913465B0013441B010C3303F158
:10234000804303F520433A68012101FA02F218465E
:102350001146FFF7A9FF0837BD4680BD482A000097
:1023600080B582B000AF03463960FB71FB79002B6A
:102370001DD0FB79012B17D0FB79022B11D0FB79F3
:10238000032B0BD0FB79042B06D0FB79052B01D155
:10239000FF230DE000230BE0002309E04FF47E4310
:1023A00006E04FF47C6303E04FF4784300E03F2302
:1023B0003A68134103F00103002B04D10C4840F2AA
:1023C0008631FEF735F9FA7913465B0013441B0199
:1023D0000C3303F1804303F520433A68012101FAED
:1023E00002F218461146FFF74DFF0837BD4680BD83
:1023F000482A000090B585B000AFB9607B60034605
:10240000FB731346BB73FB7B002B1DD0FB7B012BA7
:1024100017D0FB7B022B11D0FB7B032B0BD0FB7B5C
:10242000042B06D0FB7B052B01D1FF230DE00023FD
:102430000BE0002309E04FF47E4306E04FF47C6399
:1024400003E04FF4784300E03F23BA68134103F000
:102450000103002B04D137484FF48571FEF7E8F8EB
:10246000BB7B002B0DD07B68002B05D0FB7B184677
:10247000B968FFF775FF04E0FB7B1846B968FFF702
:1024800025FFBB68072B1CD82B4CFA7B2A48F97B0D
:102490000B465B000B441B0103445968BB689B005F
:1024A00018460F238340DB430B40B97BB86880009C
:1024B0008140194313465B0013441B0123445960B8
:1024C00024E01D4CFA7B1C48F97B0B465B000B4457
:1024D0001B01034408331968BB6803F18043083BC0
:1024E0009B0018460F238340DB431940B87BBB6831
:1024F00003F18043083B9B0000FA03F319431346A2
:102500005B0013441B01234408331960BB7B002B81
:102510000DD17B68002B05D0FB7B1846B968FFF70F
:102520001FFF04E0FB7B1846B968FFF7CFFE1437A6
:10253000BD4690BDAC2A000000A0004080B584B02C
:1025400000AF78607B68002B03D11A483E21FEF76C
:102550006FF8194B5B69DBB203F00F03DBB29B0032
:10256000FB73154B1B6903F0C0039B09DAB2FB7BBD
:102570001343FB737B68FA7B9A700F4B1B69DBB2CA
:1025800003F03F03DAB27B685A700B4B9B69DBB2F6
:1025900023F00F03FB73084BDB6903F0F0031B0907
:1025A000DAB2FB7B1343FB737B68FA7B1A7010373C
:1025B000BD4680BD102B0000D0FF0FE080B483B07B
:1025C00000AF03463960FB7197F90730002B0BDA37
:1025D0000D49FB7903F00F03043B3A68D2B2520174
:1025E000D2B20B441A7609E0084997F907303A68E5
:1025F000D2B25201D2B20B4483F800230C37BD464D
:102600005DF8047B704700BF00ED00E000E100E0F2
:1026100080B582B000AF78607B68013BB3F1807F0A
:1026200001D301230FE00A4A7B68013B53604FF05E
:10263000FF300721FFF7C2FF054B00229A60044BD1
:1026400007221A60002318460837BD4680BD00BF28
:1026500010E000E080B400AF044BDB6C1B0EDBB27B
:102660001846BD465DF8047B704700BFB081E00F9F
:1026700080B586B000AF4FF050133B610023FB6084
:10268000FFF7E8FF0346FB723B461846FFF756FF8D
:10269000FB7A8E2B22D81D4BD3F8B0307B601B4ABF
:1026A0007B6843F00403C2F8B03000237B610EE086
:1026B00017483A69FB6842EA03017A6913465B00EE
:1026C00013441B01034419607B6901337B617B69FF
:1026D000052BEDD90D4A7B68C2F8B030FB7A8F2B01
:1026E00007D80A4A094BDB6A23F07F0343F0200333
:1026F000D3627B78012B05D1064A064B1B6843F059
:10270000040313601837BD4680BD00BF00400E4073
:1027100000A0004064310E4080B400AF044B1B6841
:102720000133034A1360BD465DF8047B704700BF68
:10273000A400002080B485B000AF7860074B1B6810
:10274000FB6000BF054B1A68FB68D21A7B689A428F
:10275000F8D31437BD465DF8047B7047A400002011
:10276000B0B58AB000AF244B07F118041868596857
:102770009A68DB680FC4214B3C1D1D4628686968B8
:10278000AA68EB680FC42B8A2380FFF771FF07F15B
:1027900018031846FFF7F2FA3B1D1846FEF7ECFC4B
:1027A00011200421FEF78AFB032000210022FEF7FE
:1027B0006BFD1348FEF7E2F90246124BA3FB02231E
:1027C0009B091846FFF724FF0346002B00D0FEE7C5
:1027D000FDF7E2FD0020FDF72FFE0120FDF70AFEC8
:1027E0000020FDF74BFE0120FDF748FE4FF47A7004
:1027F000FFF7A0FFF4E700BF782B0000882B000054
:1028000050000200D34D621008B5074B044613B1C7
:102810000021AFF30080054B1868836A03B1984725
:10282000204600F033F800BF000000009C2B0000A1
:1028300070B50E4B0E4CE41AA41000251E46A5429E
:1028400004D056F8253098470135F8E700F020F815
:10285000084C094BE41AA41000251E46A54204D0DA
:1028600056F8253098470135F8E770BD7400002010
:102870007400002078000020740000200244034609
:10288000934202D003F8011BFAE77047FEE700BF4E
:10289000F8B500BFF8BC08BC9E467047F8B500BF4D
:1028A000F8BC08BC9E467047633A5C73696C696308
:1028B0006F6E6C6162735C73696D706C696369746F
:1028C0007973747564696F5C76345C646576656C85
:1028D0006F7065725C73646B735C6765636B6F5F6D
:1028E00073646B5F73756974655C76312E315C70EF
:1028F0006C6174666F726D5C656D6C69625C696E4B
:10290000635C656D5F6770696F2E6800050000008D
:10291000040000000500000005000000633A5C733D
:10292000696C69636F6E6C6162735C73696D706C06
:10293000696369747973747564696F5C76345C6417
:102940006576656C6F7065725C73646B735C6765EC
:10295000636B6F5F73646B5F73756974655C76310D
:102960002E315C706C6174666F726D5C656D6C6944
:10297000625C696E635C656D5F636D752E680000F7
:10298000433A2F53696C69636F6E4C6162732F53C6
:10299000696D706C696369747953747564696F2FBC
:1029A00076342F646576656C6F7065722F73646B17
:1029B000732F6765636B6F5F73646B5F73756974A7
:1029C000652F76312E312F706C6174666F726D2FAA
:1029D000656D6C69622F7372632F656D5F636D75D2
:1029E0002E630000433A2F53696C69636F6E4C612C
:1029F00062732F53696D706C696369747953747570
:102A000064696F2F76342F646576656C6F706572BC
:102A10002F73646B732F6765636B6F5F73646B5F9A
:102A200073756974652F76312E312F706C61746601
:102A30006F726D2F656D6C69622F7372632F656D98
:102A40005F656D752E630000633A5C73696C696342
:102A50006F6E6C6162735C73696D706C69636974CD
:102A60007973747564696F5C76345C646576656CE3
:102A70006F7065725C73646B735C6765636B6F5FCB
:102A800073646B5F73756974655C76312E315C704D
:102A90006C6174666F726D5C656D6C69625C696EA9
:102AA000635C656D5F6770696F2E6800433A2F53F2
:102AB000696C69636F6E4C6162732F53696D706CE2
:102AC000696369747953747564696F2F76342F6400
:102AD0006576656C6F7065722F73646B732F6765B5
:102AE000636B6F5F73646B5F73756974652F7631A9
:102AF0002E312F706C6174666F726D2F656D6C690D
:102B0000622F7372632F656D5F6770696F2E63004C
:102B1000433A2F53696C69636F6E4C6162732F5334
:102B2000696D706C696369747953747564696F2F2A
:102B300076342F646576656C6F7065722F73646B85
:102B4000732F6765636B6F5F73646B5F7375697415
:102B5000652F76312E312F706C6174666F726D2F18
:102B6000656D6C69622F7372632F656D5F73797326
:102B700074656D2E630000000001080705000A005F
:102B8000C8002000FFFF000001000000A00042017B
:102B90000A200706020A0407000043001400002070
:042BA0000000000031
:082BA40080D5FF7F0100000055
:102BAC00005A620200800000C0EA2101C0EA210143
:102BBC00C0EA21010000000000000000000000003D
:102BCC0000000000000000000000000000000000F9
:102BDC00000000009A2B0000000000000000000024
:102BEC0000000000000000000000000000000000D9
:102BFC0000000000000000000000000000000000C9
:102C0C0000000000000000000000000000000000B8
:102C1C0000000000ED000000C900000000000000F2
:04000003000004C134
:00000001FF
