:1000000000000820A5080000D1080000D108000069
:10001000D1080000D1080000D1080000D10800007C
:10002000D1080000D1080000D1080000D10800006C
:10003000D1080000D1080000D1080000952500007B
:10004000D1080000D1080000D1080000D10800004C
:10005000D1080000D1080000D1080000D10800003C
:10006000D1080000D1080000D1080000D10800002C
:10007000D1080000D1080000D1080000D10800001C
:10008000D1080000D1080000D1080000D10800000C
:10009000D1080000D1080000D1080000D1080000FC
:1000A000D1080000D1080000D1080000D1080000EC
:1000B000D1080000D1080000D1080000D1080000DC
:1000C000D1080000D1080000D1080000D1080000CC
:1000D000D1080000D1080000D1080000D1080000BC
:1000E000D1080000D1080000D1080000D1080000AC
:1000F000D1080000D1080000D1080000D10800009C
:10010000D1080000D1080000D1080000D10800008B
:10011000D1080000D1080000D1080000D10800007B
:10012000D1080000D1080000D1080000D10800006B
:10013000D1080000D1080000D1080000D10800005B
:10014000D1080000D1080000D1080000D10800004B
:1001500010B5054C237833B9044B13B10448AFF301
:1001600000800123237010BD8400002000000000E7
:1001700094290000084B10B51BB108480849AFF39B
:1001800000800848036803B910BD074B002BFBD063
:10019000BDE81040184700BF00000000942900008F
:1001A000880000208000002000000000154B002B7C
:1001B00008BF134B9D46A3F5803A00218B460F469E
:1001C0001348144A121A02F07BFA0F4B002B00D08E
:1001D00098470E4B002B00D09847002000210400C8
:1001E0000D000D48002802D00C48AFF3008002F04B
:1001F00041FA2000290002F0F1F902F027FA00BFCD
:1002000000000800000008200000000000000000BE
:1002100084000020AC00002000000000000000006E
:1002200080B485B000AF786039607B6803F10473F7
:10023000DA003B6813449B00FB60FB681B681846B0
:100240001437BD465DF8047B704700BF80B485B0AD
:1002500000AF786039607B6803F1C063FB60FB68C6
:100260003A681A601437BD465DF8047B704700BFDA
:1002700080B485B000AF786039607B6803F180633B
:10028000FB60FB683A681A601437BD465DF8047B72
:10029000704700BF80B582B000AF03463960FB7184
:1002A000FB79002B31D0FB79012B2BD0FB79022B72
:1002B00025D0FB79032B1FD0FB79042B19D0FB79B8
:1002C000052B13D0FB79062B0DD0FB79072B07D01C
:1002D000FB79082B02D14FF6FF7318E0002316E0DC
:1002E0004FF6FF7313E04FF6FF7310E04FF6FF7306
:1002F0000DE04FF6FF730AE04FF6FF7307E04FF68D
:10030000FF7304E04FF6FF7301E04FF6FF733A68A6
:10031000134103F00103002B04D10D4840F2593181
:1003200000F06EFBFA7913465B0013441B010C339B
:1003300003F1804303F508233A68012101FA02F230
:1003400018461146FFF794FF0837BD4680BD00BF31
:10035000EC26000080B582B000AF03463960FB7127
:10036000FB79002B31D0FB79012B2BD0FB79022BB1
:1003700025D0FB79032B1FD0FB79042B19D0FB79F7
:10038000052B13D0FB79062B0DD0FB79072B07D05B
:10039000FB79082B02D14FF6FF7318E0002316E01B
:1003A0004FF6FF7313E04FF6FF7310E04FF6FF7345
:1003B0000DE04FF6FF730AE04FF6FF7307E04FF6CC
:1003C000FF7304E04FF6FF7301E04FF6FF733A68E6
:1003D000134103F00103002B04D10C4840F27131AA
:1003E00000F00EFBFA7913465B0013441B010C333B
:1003F00003F1804303F5082318463968FFF710FF1F
:10040000034618460837BD4680BD00BFEC260000F5
:1004100080B582B000AF03463960FB71FB79002BD9
:1004200031D0FB79012B2BD0FB79022B25D0FB7926
:10043000032B1FD0FB79042B19D0FB79052B13D08C
:10044000FB79062B0DD0FB79072B07D0FB79082B06
:1004500002D14FF6FF7318E0002316E04FF6FF734A
:1004600013E04FF6FF7310E04FF6FF730DE04FF609
:10047000FF730AE04FF6FF7307E04FF6FF7304E0E7
:100480004FF6FF7301E04FF6FF733A68134103F034
:100490000103002B04D10D4840F2863100F0B0FA80
:1004A000FA7913465B0013441B010C3303F18043BC
:1004B00003F508233A68012101FA02F218461146B1
:1004C000FFF7C4FE0837BD4680BD00BFEC26000024
:1004D00090B587B000AF786000237B6101233B615A
:1004E0007B68002B48DB7B68012B45DC0023FB602D
:1004F00036E02448FB687A68D9001346DB009B1A73
:100500009B000B4403441C791E48FB687A68D900A1
:100510001346DB009B1A9B000B4403449B68204658
:100520001946FFF717FF0346002B14BF01230023D2
:10053000FB7214497A681346DB009B1A9B000B443C
:100540001B78FA7A9A4201D13B6900E000237A696C
:1005500013447B613B695B003B61FB680133FB60DB
:1005600008497A681346DB009B1A9B000B445B78B2
:100570001A46FB689A42BCDC7B6918461C37BD46AC
:1005800090BD00BF5027000090B585B000AF7860E7
:1005900039600123BB607B68002B60DB7B68012B2B
:1005A0005DDC0023FB604EE03A68BB681A40BB6824
:1005B0009A420CBF01230023DBB2184629497A680E
:1005C0001346DB009B1A9B000B441B7898421AD100
:1005D0002448FB687A68D9001346DB009B1A9B000D
:1005E0000B4403441C791F48FB687A68D900134602
:1005F000DB009B1A9B000B4403449B682046194672
:10060000FFF706FF19E01748FB687A68D900134620
:10061000DB009B1A9B000B4403441C791148FB68C8
:100620007A68D9001346DB009B1A9B000B440344F5
:100630009B6820461946FFF72DFEBB685B00BB6038
:10064000FB680133FB6007497A681346DB009B1A9D
:100650009B000B445B781A46FB689A42A4DC143773
:10066000BD4690BD50270000B0B582B000AF28480D
:10067000012100F02DFC2748012100F029FC002376
:100680007B603CE000233B602AE023483B687A68BB
:10069000D9001346DB009B1A9B000B4403441D79D1
:1006A0001D483B687A68D9001346DB009B1A9B0003
:1006B0000B4403449C6818497A681346DB009B1A74
:1006C0009B000B441B78002B01D0002300E001238A
:1006D00028462146042201F051FE3B6801333B606D
:1006E0000D497A681346DB009B1A9B000B445B782C
:1006F0001A463B689A42C8DC7B6801337B607B68A2
:10070000012BBFDD002318460837BD46B0BD00BF32
:1007100040410500005508005027000080B584B016
:1007200000AF78607B68002B13DB7B68012B10DC4B
:100730007868FFF7CDFEF860FB68002B02D14FF020
:10074000FF3300E0002378681946FFF71DFF002300
:1007500001E04FF0FF3318461037BD4680BD00BFA3
:1007600080B582B000AF3B4A3A4BD3F8B03043F08B
:100770002003C2F8B030384A374BD3F8403443F046
:100780001003C2F84034344A334BD3F8443423F0D6
:100790000303C2F84434304A2F4BD3F8F43023F427
:1007A0007063C2F8F4302C4A2B4BD3F8F43043F486
:1007B0008063C2F8F430274B10221A6600BF254B25
:1007C000D3F8903003F02003002BF8D0234A234BBA
:1007D0001B6843F001031360204A204BDB6843F0A1
:1007E0008073D3601E4B1F4A1A601F4800F01EFC26
:1007F000034603F5D52303F2FC437B607B68DB08EB
:100800001A4AA2FB03239B0A3B60194A3B68013B3F
:100810001361174B0222C3F8F020154B4FF480727E
:10082000C3F804234FF06043124AC3F8B02F4FF0CF
:100830006043114AC3F8802E4FF060424FF060438E
:10084000D3F8003E43F00103C2F8003E0837BD462E
:1008500080BD00BF00400E4000800840F0ED00E089
:10086000001000E0FF13014006000C001791650224
:10087000000004E055CEACC50900010080B582B08F
:1008800000AF4FF07E637B607B681B68002B01D15B
:10089000002302E0FFF764FF012318460837BD4636
:1008A00080BD00BF064880470649074A074B9A4269
:1008B000BEBF51F8040B42F8040BF8E7FFF776FCD3
:1008C000A1090000A02900000000002084000020F1
:1008D000FEE700BF80B582B000AF00F01DF8786081
:1008E0000A4BD3F808210A4B13401B0A3B603B68B4
:1008F00001337A68B2FBF3F37B60064A7B681360CE
:100900007B6818460837BD4680BD00BF00400E40DA
:1009100000FF01000800002080B483B000AF164B38
:10092000D3F8943003F00703032B08D0042B02D034
:10093000022B08D00BE0114B1B687B600BE04FF4DF
:1009400000437B6007E00E4B1B687B6003E00D4BB0
:100950001B687B6000BF084BD3F8003103F4F853E9
:100960001B0A01337A68B2FBF3F318460C37BD4615
:100970005DF8047B704700BF00400E40040000207B
:10098000000000200C00002080B400AF034B1B6867
:100990001846BD465DF8047B704700BF000000208C
:1009A00080B400AF054A054BD3F8883043F4700398
:1009B000C2F88830BD465DF8047B704700ED00E06A
:1009C00080B400AF4FF400431846BD465DF8047B89
:1009D000704700BF80B400AF4FF47A731846BD462D
:1009E0005DF8047B704700BF80B400AF034B1B6809
:1009F0001846BD465DF8047B704700BF0400002028
:100A000080B483B000AF78603960FEE780B487B00F
:100A100000AFF860B9607A60FB6803F10473DA0034
:100A2000BB6813449B007B617B697A681A601C3742
:100A3000BD465DF8047B704780B483B000AF78603A
:100A40007B68012202FA03F318460C37BD465DF8B5
:100A5000047B704780B483B000AF054B1B687B609C
:100A60007B6818460C37BD465DF8047B704700BFB5
:100A70001000002080B582B000AFFFF74DFF786016
:100A8000064BD3F8003103F4F8531B0A01337A689C
:100A900002FB03F318460837BD4680BD00400E40F8
:100AA00080B582B000AF0F4800F04AFC0346FB70EF
:100AB000FB78072B05D0092B07D1FFF72DFF7860B6
:100AC0000BE0FFF7C7FF786007E007484FF4E371DA
:100AD000FFF796FF00237B6000BF7B68184608374E
:100AE000BD4680BD06000C00EC27000080B584B038
:100AF00000AF78607B68002B02D0012B06D00BE0A2
:100B0000224800F01DFC0346FB720CE0204800F078
:100B100017FC0346FB7206E01E4840F2E711FFF7A0
:100B20006FFF00232EE0FB7A013B072B21D801A2A7
:100B300052F823F0550B0000730B0000730B0000FC
:100B4000630B0000730B0000730B00005B0B0000D5
:100B50006B0B00000023FB6013E0FFF77BFFF860E6
:100B60000FE0FFF711FFF8600BE0FFF783FFF8607D
:100B700007E0084840F2FD11FFF742FF0023FB6049
:100B800000BFFB6818461037BD4680BD98002E0098
:100B900099003000EC27000080B582B000AF1C48FF
:100BA00000F0CEFB0346FB70FB78043B062B21D8FC
:100BB00001A252F823F000BFDD0B0000D50B0000AE
:100BC000F50B0000E50B0000F50B0000F50B000035
:100BD000ED0B00000F4B1B687B6013E0FFF7D4FEAA
:100BE00078600FE0FFF736FF78600BE00A4B1B6878
:100BF0007B6007E0094840F22721FFF701FF00234F
:100C00007B6000BF7B6818460837BD4680BD00BFCB
:100C10000A7B32000C00002014000020EC270000AA
:100C200080B584B000AF78607B68002B1AD11F4874
:100C300000F086FB0346FB7200BFFB7A043B062BE9
:100C400027D801A252F823F07B0C0000730C00009F
:100C5000930C0000830C0000930C0000930C000028
:100C60008B0C0000124840F24321FFF7C9FE00231D
:100C700018E0104B1B68FB6013E0FFF785FEF8607F
:100C80000FE0FFF7E7FEF8600BE00B4B1B68FB6023
:100C900007E0074840F25921FFF7B2FE0023FB604E
:100CA00000BFFB6818461037BD4680BD0B7C340082
:100CB000EC2700000C0000201400002080B582B05A
:100CC00000AF244800F03CFB0346FB70FB78023B7E
:100CD000092B31D801A252F823F000BF290D0000E2
:100CE000310D00000D0D0000210D0000390D000038
:100CF000390D0000390D0000390D0000050D000010
:100D0000150D0000144B1B687B601DE0FFF73CFED7
:100D1000786019E0FFF738FE03465B007B6013E064
:100D20000E4B1B687B600FE0FFF75EFE78600BE008
:100D3000FFF746FE786007E0094840F28A21FFF796
:100D40005FFE00237B6000BF7B6818460837BD4606
:100D500080BD00BF0C7F3600140000200C00002076
:100D6000EC27000090B585B000AF78600023BB6031
:100D70007B68434A934212D0414A934203D8414A86
:100D800093420CD005E0404A934208D03F4A934238
:100D900005D03F4840F2B531FFF732FE00E000BF1A
:100DA000786800F0CDFA0346FB607B68344A9342D2
:100DB00014D0334A934203D8324A934207D022E0F8
:100DC000314A934211D0314A934215D01BE0314B46
:100DD000D3F8803003F00703FB601AE02D4BD3F803
:100DE000843003F00703FB6013E02A4BD3F88C3008
:100DF00003F00703FB600CE0264BD3F8883003F0C8
:100E00000703FB6005E022484FF47971FFF7F8FD16
:100E100000BFFB68042B2ED801A252F823F000BFBC
:100E2000710E0000350E00003D0E00004D0E00005A
:100E3000450E0000FFF7C4FDB8601CE0FFF7D4FDCD
:100E4000B86018E0FFF7C6FDB86014E0FFF742FD98
:100E50000446104BD3F8003103F040731B0E0133EE
:100E60001846FFF7E9FD0346B4FBF3F3BB6002E06D
:100E70000023BB6000BFBB6818461437BD4690BD59
:100E800003001C0002001A0004001E0005002000E0
:100E9000EC27000000400E4080B483B000AF7860C3
:100EA0000A4BD3F8443103F00103002B00D007E0D4
:100EB00000BF064BD3F840217B681340002BF8D1CC
:100EC0000C37BD465DF8047B704700BF00400E4004
:100ED00080B586B000AF78600B46FB7000233B61A5
:100EE0007B681B0A03F00F03013B0E2B6AD801A29B
:100EF00052F823F0310F00003D0F0000C50F000035
:100F0000C50F0000370F0000490F0000530F00000D
:100F10005D0F0000690F0000BF0F0000750F00009B
:100F2000970F0000C50F0000430F0000B90F00002D
:100F3000314B7B614CE0314B7B6149E0304B7B6155
:100F400046E0304B7B6143E02F4B7B6101233B61EB
:100F50003EE02E4B7B6110233B6139E02C4B7B61E3
:100F60004FF480733B6133E02A4B7B614FF4803355
:100F70003B612DE0284B7B61FB78002B14BF0123E4
:100F80000023DBB283F00103DBB2FB70FB7803F0DC
:100F90000103FB701CE0214B7B61FB78002B14BF2D
:100FA00001230023DBB283F00103DBB2FB70FB788B
:100FB00003F00103FB700BE0194B7B6108E0194B58
:100FC0007B6105E018484FF4FB61FFF719FD10E065
:100FD0007B681B0B03F01F03FB603B69002B02D0F7
:100FE0003869FFF759FFFB787869F9681A46FFF707
:100FF0000DFD1837BD4680BD00400E40B0400E408C
:10100000C0400E40C4400E40E0400E40E8400E405C
:10101000EC400E40F0400E4060410E4064410E40F6
:10102000F0410E4050410E40EC27000080B584B0E6
:1010300000AF78607B6803F47813B3F5C01F00F04D
:101040000581B3F5C01F31D8B3F5402F00F02A81D8
:10105000B3F5402F12D8B3F5802F62D0B3F5802FAF
:1010600005D8002B59D0B3F5003F6DD04EE1B3F554
:10107000002F65D0B3F5202F75D047E1B3F5901F51
:1010800000F09480B3F5901F07D8B3F5602F00F0FF
:101090000D81B3F5801F7AD038E1B3F5A01F00F0C1
:1010A0008A80B3F5B01F00F0BF802FE1B3F5301F89
:1010B00000F0DF80B3F5301F16D8B3F5001F00F045
:1010C000EC80B3F5001F07D8B3F5D01F5AD0B3F5A5
:1010D000E01F00F0A48019E1B3F5181F7DD0B3F52F
:1010E000281F00F08D8011E1B3F5481F00F0018149
:1010F000B3F5481F08D8B3F5381F00F0DB80B3F50F
:10110000401F00F0E68001E1B3F5501F00F0F580CC
:10111000B3F5581F00F0F680F8E0FFF7FDFBF8602C
:10112000FCE0FFF7F9FBF8607F4BD3F80C217F4B15
:1011300013401B0A0133FA68B2FBF3F3FB60EDE0E6
:10114000FFF7EAFBF860E9E0FFF7E6FBF860764BB3
:10115000D3F80821754B13401B0A0133FA68B2FB20
:10116000F3F3FB60DAE0FFF7D7FBF8606E4BD3F8E0
:10117000143103F4F8531B0A0133FA68B2FBF3F39A
:10118000FB60CBE06A48FFF7EDFDF860C6E0684819
:10119000FFF7E8FDF860644BD3F8203103F47023C7
:1011A0001B0C1A46FB68D340FB60B7E06148FFF7B1
:1011B000D9FDF860B2E05E48FFF7D4FDF8605A4B05
:1011C000D3F8203103F00F031846FFF735FC024631
:1011D000FB68B3FBF2F3FB60A0E05548FFF7C2FDEC
:1011E000F860514BD3F8203103F4E0431B0B184651
:1011F000FFF722FC0246FB68B3FBF2F3FB608DE0D5
:101200004B48FFF7AFFDF860474BD3F8203103F4AC
:1012100040731B0A1A46FB68D340FB607EE04648D9
:10122000FFF7A0FDF86079E04348FFF79BFDF86009
:101230003D4BD3F8283103F003031846FFF7FCFBBE
:101240000246FB68B3FBF2F3FB6067E03A48FFF746
:1012500089FDF860344BD3F8283103F030031B09C3
:101260001846FFF7E9FB0246FB68B3FBF2F3FB60AD
:1012700054E03148FFF776FDF8602B4BD3F8283166
:1012800003F440531B0B04331846FFF7D5FB02460B
:10129000FB68B3FBF2F3FB6040E02648FFF762FD1A
:1012A000F8603BE0FFF7FCFBF86037E0FFF7D2FBAC
:1012B000F86033E00020FFF719FCF8601A4BD3F810
:1012C0005C3103F003030133FA68B2FBF3F3FB6014
:1012D00024E00120FFF70AFCF860134BD3F85C31DF
:1012E00003F440331B0C0133FA68B2FBF3F3FB60E9
:1012F00014E0FFF751FCF86010E00020FFF790FCCD
:10130000F8600BE0FFF7DAFCF86007E00B4840F606
:10131000CC01FFF775FB0023FB6000BFFB6818469C
:101320001037BD4680BD00BF00400E4000FF0100E9
:1013300002001A000500200003001C00EC2700003A
:1013400080B584B000AF78600123FB737B6803F045
:101350000F03BB60BB68013B0B2B00F2408101A275
:1013600052F823F095130000C7130000F713000094
:10137000DF1500003D1400006D140000DF150000B3
:101380008D140000C91400000D1500004B1500005D
:101390008B1500009B4BD3F8943003F00703032B0D
:1013A00007D0042B02D0022B06D008E00223FB73E7
:1013B00008E00323FB7305E00423FB7302E005232D
:1013C000FB7300BF18E18F4BD3F8803003F00703A5
:1013D000022B06D0042B07D0012B08D10323FB736B
:1013E00008E00223FB7305E00C23FB7302E00123FA
:1013F000FB7300BF00E1834BD3F8843003F0070395
:10140000013B032B16D801A252F823F01D14000053
:10141000231400002F140000291400000323FB7381
:101420000BE00223FB7308E00C23FB7305E00623AB
:10143000FB7302E00123FB7300BFDDE0714BD3F8C7
:10144000883003F00703022B06D0042B07D0012BB2
:1014500008D10323FB7308E00223FB7305E00C2390
:10146000FB7302E00123FB7300BFC5E0654B1B6FFC
:1014700003F00303002B05D0012B00D0BCE00923AF
:10148000FB7302E00723FB7300BFB5E05D4BD3F8AD
:101490005C3103F03003102B0CD0102B02D8002B42
:1014A00005D0A9E0202B08D0302B09D0A4E00123DF
:1014B000FB7308E00723FB7305E00423FB7302E0E2
:1014C0000823FB7300BF97E04E4BD3F85C3103F465
:1014D0004013B3F5801F0FD0B3F5801F02D8002B47
:1014E00007D089E0B3F5001F09D0B3F5401F09D03C
:1014F00082E00123FB7308E00723FB7305E004236C
:10150000FB7302E00823FB7300BF75E03D4BD3F88B
:10151000603103F00303032B69D801A252F823F0D2
:1015200031150000371500003D150000431500007F
:101530000523FB7308E00423FB7305E00723FB731B
:1015400002E00A23FB7300BF51E02E4BD3F8643155
:1015500003F00303032B4CD801A252F823F000BF81
:1015600071150000771500007D150000831500003F
:101570000523FB7308E00423FB7305E00723FB73DB
:1015800002E00A23FB7300BF33E01E4BD3F8F031B7
:1015900003F00703052B2ED801A252F823F000BF59
:1015A000B9150000BF150000C5150000CB150000DF
:1015B000D1150000D71500000A23FB730EE00423A9
:1015C000FB730BE00B23FB7308E00523FB7305E0C3
:1015D0000223FB7302E00323FB7300BF0BE00A4806
:1015E0004FF44761FFF70CFA0023FB7304E000BFE0
:1015F00002E000BF00E000BFFB7B18461037BD468D
:1016000080BD00BF00400E40EC27000080B487B0D2
:1016100000AFF860B9607A60FB6803F10473DA0028
:10162000BB6813449B007B617B697A681A601C3736
:10163000BD465DF8047B704780B485B000AF78602C
:1016400039607B6803F10473DA003B6813449B0044
:10165000FB60FB681B6818461437BD465DF8047BC9
:10166000704700BF80B483B000AF7860034A7B68E6
:10167000D3620C37BD465DF8047B704700300E40E6
:1016800080B400AF034B5B6A1846BD465DF8047B2F
:10169000704700BF00300E4080B400AF01231846F1
:1016A000BD465DF8047B704780B582B000AF0C4A40
:1016B0000B4BDB6E43F08073D3660A480021FFF7C3
:1016C000BBFF78607B68002B03D0042000F042FD54
:1016D00002E0002000F03EFD0837BD4680BD00BF9F
:1016E00000300E404C300E4080B58AB000AF012370
:1016F0007B627B6A1B053B62414BDB6C03F47063CE
:101700001B0AFB613F4B1B8803F128023D4B1B88E2
:101710002833D90F0B445B1013441946FB695A1C3C
:1017200013469B001344B1FBF3F3013BBB61BB6960
:101730007B6107233B613A697B69934228BF13466B
:10174000BB61BB691B06BB61BB6923F0E063002B77
:1017500004D02D4840F2B351FFF752F93B6A23F40D
:10176000E003002B04D0284840F2B451FFF748F9B9
:101770002348234BDB6C23F0EE62B9693B6A0B43D1
:101780001343C364214B1B881BB2002B35DB1F4B5B
:101790001B88FB81FB8903F12802FB892833D90FC1
:1017A0000B445B1013441946FB6901335A00FB6973
:1017B00001335B081344B1FBF3F3BB60BB687B6090
:1017C00007233B603A687B68934228BF1346BB609F
:1017D000BB681B01BB60BB6823F07003002B04D007
:1017E000094840F2CB51FFF70BF90549044B1B6D3B
:1017F00023F07002BB6813430B652837BD4680BDDC
:1018000000300E40A000002050280000A40000205E
:1018100080B483B000AF78600B467B807B689AB25F
:10182000044B1A80044A7B8813800C37BD465DF850
:10183000047B7047A0000020A400002080B582B087
:1018400000AF0346FB71FB79002B02D0012B04D0C3
:1018500007E0084B084A9A6509E0064B074A9A6573
:1018600005E0074840F2F751FFF7CAF800BF083714
:10187000BD4680BD00300E4077402057372110B75D
:101880005028000080B584B000AF0346FB710B46C2
:10189000BB7113467B71344BD3F88031FB60BB794D
:1018A000032B1FD801A252F823F000BFBD1800007F
:1018B000C5180000D1180000DD180000FB68DBB27D
:1018C000FB6016E0FB6803F47F431B0AFB6010E03B
:1018D000FB6803F47F031B0CFB600AE0FB681B0E34
:1018E000FB6006E0214840F23B61FFF789F80023E6
:1018F00036E07B79002B16D1FB681B03FB60FB688D
:1019000023F47043002B06D0184840F24661FFF7DD
:1019100077F8002324E01649154BDB6E23F4704260
:10192000FB681343CB667B79012B18D1FB681B0343
:10193000FB60FB6823F47043002B06D00B4840F299
:101940005261FFF75DF800230AE00949084BD3F81C
:10195000EC3023F47042FB681343C1F8EC300123F0
:1019600018461037BD4680BDB081E00F50280000FA
:1019700000300E4080B588B000AFF860B960114605
:101980001A460B46FB711346BB710023FB61002313
:10199000BB61BB791A02FB7913437B617B6940F21F
:1019A000011293422BD0B3F5817F07D2012B19D0BE
:1019B000012B4BD3B3F5807F55D07BE040F2012261
:1019C000934229D040F20122934203D8B3F5007F1D
:1019D00056D06FE0B3F5407F5FD040F201329342C2
:1019E00027D067E03B4BD3F87431FB61FB6903F40C
:1019F0007F431B0ABB61FB69DBB2FB6160E0354BD7
:101A0000D3F87431FB61FB691B0EBB61FB6903F406
:101A10007F031B0CFB6153E02E4BD3F87831FB6145
:101A2000FB6903F47F431B0ABB61FB69DBB2FB610B
:101A300046E0284BD3F87831FB61FB691B0EBB6194
:101A4000FB6903F47F031B0CFB6139E0214BD3F8E6
:101A50006C31FB61FB6903F47F431B0ABB61FB69CB
:101A6000DBB2FB612CE01B4BD3F86C31FB61FB69F3
:101A70001B0EBB61FB6903F47F031B0CFB611FE0C2
:101A8000144BD3F87031FB61FB6903F47F431B0AED
:101A9000BB61FB69DBB2FB6112E00E4BD3F8703126
:101AA000FB61FB691B0EBB61FB6903F47F031B0C2D
:101AB000FB6105E0084840F2B761FEF7A1FF00BFF7
:101AC000FB68FA691A60BB68BA691A602037BD46BC
:101AD00080BD00BFB081E00F5028000080B584B009
:101AE00000AF0346FB7100BF364B9B6F03F0010351
:101AF000002BF9D1334B1B6C03F00303FB60FB6835
:101B0000002B04D030480D210122FFF77FFDFB6838
:101B1000DBB2FA799A4209D1FB79002B05D12A4828
:101B20000D210022FFF772FD48E047E0FB68032B20
:101B300002D0FB68002B20D1FB79022B02D0FB796D
:101B4000012B1AD14FF40020FFF78CFD00BF1D4B75
:101B50009B6F03F00103002BF9D11A4A194B1B6C40
:101B600023F0030343F00103136400BFFFF788FD74
:101B7000034603F40023002BF8D000BF114B9B6FEA
:101B800003F00103002BF9D10E490E4B1B6C23F01F
:101B90000302FB7913430B6400BF0A4B9B6F03F0F6
:101BA0000103002BF9D1FB79002B14BF0123002383
:101BB000DBB205480D211A46FFF728FD1037BD4658
:101BC00080BD00BF00300E4054300E4080B584B060
:101BD00000AF7860FFF760FD7B681B89C82B04D9D4
:101BE000604840F24F71FEF70BFF7B689A887B6874
:101BF0001B899A4204D95B484FF4EA61FEF700FF63
:101C00007B689B891BB2C82B04DD564840F251719A
:101C1000FEF7F6FE7B685B78012B09D17B689B8819
:101C2000C82B12D94F4840F25571FEF7E9FE0CE07F
:101C30007B685B78022B08D17B689B880A2B04D9D0
:101C4000484840F25A71FEF7DBFE7B68DB8842F2BF
:101C50001072934204D9434840F25F71FEF7D0FE00
:101C60007B68DB884A2B02D80023FB6015E07B6889
:101C7000DB88B3F5FA7F03D24FF08053FB600CE0B2
:101C80007B68DB8840F6C312934203D84FF00053C1
:101C9000FB6002E04FF04053FB603348324BDB6C9B
:101CA00023F0405323F001037A68928912B2002A8C
:101CB00001DB012100E00021FA680A431343C364F9
:101CC000294A294BD3F8EC3043F44073C2F8EC3086
:101CD000FFF7EAFC7B681B891A467B689B891BB26D
:101CE00010461946FFF794FD7B689A881F4B1A80AF
:101CF0007B689B88184600F0B9F97B689B7B184687
:101D0000FFF79CFD7B685B8818460121012200F0EB
:101D100031F8034683F00103DBB2002B06D01148F3
:101D200040F29671FEF76CFE002317E00E4A0E4B50
:101D3000DB6B43F48063D3637B685B781846FFF703
:101D4000CDFE7B689B7A002B14BF01230023DBB2FE
:101D5000074805211A46FFF759FC0123184610379A
:101D6000BD4680BD5028000000300E40A20000207B
:101D70003C300E4090B595B000AF78600B46FB70DC
:101D80001346BB700023FB6400237B6407F124032C
:101D900000221A60043300221A60043300221A6001
:101DA000043307F1180300221A60043300221A607A
:101DB000043300221A60043307F10C0300221A6076
:101DC000043300221A60043300221A600433002313
:101DD0003B810023BB727B68B3F5E16F06D37B6860
:101DE00040F6B832934201D8012300E0002387F87F
:101DF000433097F8433003F0010387F8433097F8F6
:101E0000433083F00103DBB2002B06D0944840F24C
:101E1000DA71FEF7F5FD00231EE17B68B3F5E16F93
:101E20008CBF0123002387F8423097F84230002B03
:101E30000AD04FF4E163FB6440F6B8337B647A6CFC
:101E4000FB6CD31ABB6409E04FF49663FB644FF458
:101E5000E1637B647A6CFB6CD31ABB6497F8423005
:101E6000002B0CD07F4BD3F868313B623B6A1B0ED2
:101E70007B613B6A03F47F031B0C3B620BE0794BF5
:101E8000D3F868313B623B6A03F47F431B0A7B61F2
:101E90003B6ADBB23B62744BDB6C03F040531B0FBD
:101EA000DBB23B723B7A07F1180007F10C0197F89F
:101EB0004220FFF75FFD6C4BD3F8EC3003F4407326
:101EC0001B0ADBB27B727C7A07F11803191D07F13C
:101ED0000C031A1D97F84230084611461A4623464D
:101EE000FFF748FD7A68FB6CD31A79693A6A8A1A57
:101EF00002FB03F2BB6CB2FBF3F3FB62FA6A3B6AD0
:101F00001344FB627A68FB6CD31AF968BA698A1ABF
:101F100002FB03F2BB6CB2FBF3F37B627A6ABB6930
:101F200013447B627A68FB6CD31A3969FA698A1A9E
:101F300002FB03F2BB6CB2FBF3F3BB62BA6AFB6950
:101F40001344BB62FA6A7B699A4213D8FA6A3B6A05
:101F50009A420FD3BA6A3B699A420BD8BA6AFB69B4
:101F60009A4207D37A6AFB689A4203D87A6ABB69B5
:101F70009A4206D23A4840F62601FEF741FD002378
:101F80006AE0BB78002B12D03749374BDB6D23F466
:101F9000FE4323F00203FA6A12021A4397F8423012
:101FA000002B01D0022300E000231343CB65FB7814
:101FB000002B50D03B7A97F8422010461946002259
:101FC000FFF760FC034683F00103DBB2002B06D071
:101FD000234840F63501FEF713FD00233CE07B7AF1
:101FE00097F84220104619460122FFF74BFC0346A2
:101FF00083F00103DBB2002B06D0194840F63D0107
:10200000FEF7FEFC002327E07B6AFB63BB6ABB6331
:10201000BA6BFB6B934238BF13467B627B6A7B6370
:10202000E7233B633A6B7B6B934228BF13467B628B
:102030000D490D4B5B6E23F4FF7323F001037A6AA5
:1020400052001A4397F84230002B01D0012300E0E0
:10205000002313434B66012318465437BD4690BDF9
:1020600050280000B081E00F00300E4080B584B0F1
:1020700000AF78600023FB60344B1B6F03F0070355
:10208000BB60324BDB6C03F00103002B15D0BB6847
:10209000012B12D97B68132B02D80423FB600BE0C1
:1020A0007B68132B05D97B68272B02D80823FB609C
:1020B00002E01023FB6033E032E0244BDB6C03F0E2
:1020C0000103002B15D1BB68012B12D87B68092BAB
:1020D00002D80423FB600BE07B68092B05D97B68E1
:1020E000132B02D80823FB6002E01023FB6017E0EB
:1020F00016E0164BDB6C03F00103002B0BD0BB6822
:10210000012B08D87B68272B02D80823FB6007E047
:102110001023FB6004E00E4840F67801FEF770FCE7
:10212000FB68013BFB60FB681A02FB681B0313435F
:10213000FB600649054BDB6C23F47F42FB681343CD
:10214000CB64FFF7D1FA1037BD4680BD00300E409A
:102150005028000080B584B000AF0346FB711148E1
:102160000021FFF769FAF860FB68002B02D1FB79C8
:10217000012B07D9FB68002B04D10B4840F69601D0
:10218000FEF73EFC0949094B1B6F23F00702FB7960
:1021900013430B67064B1B881846FFF767FF103782
:1021A000BD4680BD4C300E405028000000300E402F
:1021B000A200002080B485B000AF786039607B68F1
:1021C00003F1C063FB60FB683A681A601437BD46D0
:1021D0005DF8047B704700BF80B485B000AF7860C5
:1021E00039607B6803F18063FB60FB683A681A60C2
:1021F0001437BD465DF8047B704700BF80B582B0E0
:1022000000AF03463960FB71FB79002B31D0FB79BD
:10221000012B2BD0FB79022B25D0FB79032B1FD070
:10222000FB79042B19D0FB79052B13D0FB79062BF6
:102230000DD0FB79072B07D0FB79082B02D14FF685
:10224000FF7318E0002316E04FF6FF7313E04FF61C
:10225000FF7310E04FF6FF730DE04FF6FF730AE0D7
:102260004FF6FF7307E04FF6FF7304E04FF6FF737E
:1022700001E04FF6FF733A68134103F00103002BAE
:1022800004D10D4840F25931FEF7BAFBFA791346F2
:102290005B0013441B010C3303F1804303F5082357
:1022A0003A68012101FA02F218461146FFF794FF3D
:1022B0000837BD4680BD00BFB428000080B582B09D
:1022C00000AF03463960FB71FB79002B31D0FB79FD
:1022D000012B2BD0FB79022B25D0FB79032B1FD0B0
:1022E000FB79042B19D0FB79052B13D0FB79062B36
:1022F0000DD0FB79072B07D0FB79082B02D14FF6C5
:10230000FF7318E0002316E04FF6FF7313E04FF65B
:10231000FF7310E04FF6FF730DE04FF6FF730AE016
:102320004FF6FF7307E04FF6FF7304E04FF6FF73BD
:1023300001E04FF6FF733A68134103F00103002BED
:1023400004D10D4840F28631FEF75AFBFA79134664
:102350005B0013441B010C3303F1804303F5082396
:102360003A68012101FA02F218461146FFF722FFEE
:102370000837BD4680BD00BFB428000090B585B0C9
:1023800000AFB9607B600346FB731346BB73FB7BF6
:10239000002B31D0FB7B012B2BD0FB7B022B25D0DC
:1023A000FB7B032B1FD0FB7B042B19D0FB7B052B66
:1023B00013D0FB7B062B0DD0FB7B072B07D0FB7BC1
:1023C000082B02D14FF6FF7318E0002316E04FF6FA
:1023D000FF7313E04FF6FF7310E04FF6FF730DE04D
:1023E0004FF6FF730AE04FF6FF7307E04FF6FF73F7
:1023F00004E04FF6FF7301E04FF6FF73BA68134134
:1024000003F00103002B04D137484FF48571FEF728
:10241000F7FABB7B002B0DD07B68002B05D0FB7B34
:102420001846B968FFF74AFF04E0FB7B1846B96815
:10243000FFF7E4FEBB68072B1CD82C4CFA7B2B481B
:10244000F97B0B465B000B441B0103445968BB68D6
:102450009B0018460F238340DB430B40B97BB868D1
:1024600080008140194313465B0013441B01234441
:10247000596024E01D4CFA7B1C48F97B0B465B003D
:102480000B441B01034408331968BB6803F1804304
:10249000083B9B0018460F238340DB431940B87B61
:1024A000BB6803F18043083B9B0000FA03F3194328
:1024B00013465B0013441B01234408331960BB7BA4
:1024C000002B0DD17B68002B05D0FB7B1846B9682B
:1024D000FFF7F4FE04E0FB7B1846B968FFF78EFEB9
:1024E0001437BD4690BD00BF182900000080084089
:1024F00080B483B000AF03463960FB7197F90730B1
:10250000002B0BDA0D49FB7903F00F03043B3A680B
:10251000D2B25201D2B20B441A7609E0084997F9B7
:1025200007303A68D2B25201D2B20B4483F800238A
:102530000C37BD465DF8047B704700BF00ED00E03E
:1025400000E100E080B582B000AF78607B68013BBD
:10255000B3F1807F01D301230FE00A4A7B68013B7E
:1025600053604FF0FF300721FFF7C2FF054B0022F9
:102570009A60044B07221A60002318460837BD46AC
:1025800080BD00BF10E000E080B400AFBD465DF844
:10259000047B704780B400AF044B1B680133034ACF
:1025A0001360BD465DF8047B704700BFA8000020A3
:1025B00080B485B000AF7860074B1B68FB6000BF3C
:1025C000054B1A68FB68D21A7B689A42F8D3143715
:1025D000BD465DF8047B7047A800002090B585B02B
:1025E00000AF174B3C46186859689A68DB680FC4FF
:1025F000FFF7CAFF3B461846FFF7E8FAFEF73EF939
:102600001048FEF713FD02460F4BA3FB02239B0964
:102610001846FFF797FF0346002B00D0FEE7FEF7B2
:1026200023F80120FEF77AF84FF47A70FFF7C0FF25
:102630000020FEF773F80120FEF770F8F4E700BF02
:102640007C29000050000200D34D621008B5074BF2
:10265000044613B10021AFF30080054B1868836A6C
:1026600003B19847204600F033F800BF0000000097
:102670009029000070B50E4B0E4CE41AA4100025F2
:102680001E46A54204D056F8253098470135F8E794
:1026900000F020F8084C094BE41AA41000251E464F
:1026A000A54204D056F8253098470135F8E770BDAB
:1026B00078000020780000207C00002078000020B6
:1026C00002440346934202D003F8011BFAE7704725
:1026D000FEE700BFF8B500BFF8BC08BC9E467047D7
:1026E000F8B500BFF8BC08BC9E467047633A5C73FF
:1026F000696C69636F6E6C6162735C73696D706C39
:10270000696369747973747564696F5C76345C6449
:102710006576656C6F7065725C73646B735C67651E
:10272000636B6F5F73646B5F73756974655C76313F
:102730002E315C706C6174666F726D5C656D6C6976
:10274000625C696E635C656D5F6770696F2E6800BF
:1027500000030000070000000A000000070000005E
:102760000B000000070000000C0000000003000048
:10277000070000000D000000070000000E00000030
:10278000070000000F000000633A5C73696C696326
:102790006F6E6C6162735C73696D706C6963697490
:1027A0007973747564696F5C76345C646576656CA6
:1027B0006F7065725C73646B735C6765636B6F5F8E
:1027C00073646B5F73756974655C76312E315C7010
:1027D0006C6174666F726D5C656D6C69625C696E6C
:1027E000635C656D5F636D752E680000433A2F531F
:1027F000696C69636F6E4C6162732F53696D706CA5
:10280000696369747953747564696F2F76342F64C2
:102810006576656C6F7065722F73646B732F676577
:10282000636B6F5F73646B5F73756974652F76316B
:102830002E312F706C6174666F726D2F656D6C69CF
:10284000622F7372632F656D5F636D752E63000079
:10285000433A2F53696C69636F6E4C6162732F53F7
:10286000696D706C696369747953747564696F2FED
:1028700076342F646576656C6F7065722F73646B48
:10288000732F6765636B6F5F73646B5F73756974D8
:10289000652F76312E312F706C6174666F726D2FDB
:1028A000656D6C69622F7372632F656D5F656D7501
:1028B0002E630000633A5C73696C69636F6E6C61D0
:1028C00062735C73696D706C696369747973747534
:1028D00064696F5C76345C646576656C6F70657294
:1028E0005C73646B735C6765636B6F5F73646B5F72
:1028F00073756974655C76312E315C706C617466D9
:102900006F726D5C656D6C69625C696E635C656D50
:102910005F6770696F2E6800433A2F53696C696373
:102920006F6E4C6162732F53696D706C696369746B
:102930007953747564696F2F76342F646576656C8E
:102940006F7065722F73646B732F6765636B6F5F56
:1029500073646B5F73756974652F76312E312F70D8
:102960006C6174666F726D2F656D6C69622F737226
:10297000632F656D5F6770696F2E63000002080743
:1029800005000A00C8002000FFFF0100430000000E
:08299000180000200000000007
:0829980014D8FF7F01000000CC
:1029A00080F0FA0200800000C0EA2101C0EA2101A3
:1029B000C0EA2101006CDC02000000000000000001
:1029C0000000000000000000000000000000000007
:1029D00000000000000000008C2900000000000042
:1029E00000000000000000000000000000000000E7
:1029F00000000000000000000000000000000000D7
:102A000000000000000000000000000000000000C6
:102A100000000000000000007501000051010000EE
:042A200000000000B2
:04000003000008A54C
:00000001FF
