:1000000000000220FD040000290500002905000071
:100010002905000029050000290500002905000028
:100020002905000029050000290500002905000018
:1000300029050000290500002905000059130000CA
:1000400029050000290500002905000029050000F8
:1000500029050000290500002905000029050000E8
:1000600029050000290500002905000029050000D8
:1000700029050000290500002905000029050000C8
:1000800029050000290500002905000029050000B8
:1000900029050000290500002905000029050000A8
:1000A0002905000029050000290500002905000098
:1000B0002905000029050000290500002905000088
:1000C0002905000029050000290500002905000078
:1000D00029050000290500002905000010B5054C80
:1000E000237833B9044B13B10448AFF300800123E4
:1000F000237010BD780000200000000004170000ED
:10010000084B10B51BB108480849AFF300800848F8
:10011000036803B910BD074B002BFBD0BDE81040AE
:10012000184700BF00000000041700007C000020FA
:100130007400002000000000154B002B08BF134B7B
:100140009D46A3F5803A00218B460F461348144A7A
:10015000121A01F089F90F4B002B00D098470E4B73
:10016000002B00D098470020002104000D000D480E
:10017000002802D00C48AFF3008001F04FF92000B6
:10018000290001F00DF901F035F900BF0000080069
:1001900000000220000000000000000078000020A5
:1001A00098000020000000000000000080B582B030
:1001B00000AF03463960FB71FB79002B1FD0FB7940
:1001C000012B19D0FB79022B13D0FB79032B0DD017
:1001D000FB79042B07D0FB79052B02D141F6FF7385
:1001E0000FE000230DE04FF6FF730AE04FF6FF73B8
:1001F00007E04FF6FF7304E04FF6FF7301E04FF6A0
:10020000FF733A68134103F00103002B04D10B483C
:1002100040F2863100F058FA0949FA793B6801202A
:1002200000FA03F318461346DB0013449B000B440B
:10023000103318600837BD4680BD00BF941400001D
:100240000060004080B582B000AF03463960FB71AA
:10025000FB79002B1FD0FB79012B19D0FB79022BE6
:1002600013D0FB79032B0DD0FB79042B07D0FB793E
:10027000052B02D141F6FF730FE000230DE04FF68E
:10028000FF730AE04FF6FF7307E04FF6FF7304E0D9
:100290004FF6FF7301E04FF6FF733A68134103F026
:1002A0000103002B04D10B4840F29F3100F00CFAFF
:1002B0000949FA793B68012000FA03F3184613460E
:1002C000DB0013449B000B44183318600837BD460D
:1002D00080BD00BF941400000060004080B582B073
:1002E00000AF1248012100F02BFC1148012100F061
:1002F00027FC00237B6011E00E4A7B6812F8331064
:100300000C4A7B68DB0013445B68084619460422EC
:10031000002300F0C1FE7B6801337B607B68012B0A
:10032000EADD002318460837BD4680BD4081040041
:1003300000D20400F814000080B582B000AF7860ED
:100340007B68002B11DB7B68012B0EDC0A4A7B6883
:1003500012F83310084A7B68DB0013445B680846D8
:100360001946FFF723FF002301E04FF0FF33184643
:100370000837BD4680BD00BFF814000080B582B0CC
:1003800000AF78607B68002B11DB7B68012B0EDCF3
:100390000A4A7B6812F83310084A7B68DB00134472
:1003A0005B6808461946FFF74DFF002301E04FF058
:1003B000FF3318460837BD4680BD00BFF814000063
:1003C00080B582B000AF394A384B5B6C43F40053C0
:1003D0005364374A364BD3F8203143F00403C2F854
:1003E0002031334A324BD3F8203123F44073C2F822
:1003F00020312F4A2E4BD3F8B83023F47063C2F863
:10040000B8302B4A2A4BD3F8B83043F48063C2F893
:10041000B830264B10221A6200BF244BDB6A03F06F
:100420002003002BF9D0234A224B1B6843F0010321
:100430001360204A1F4BDB6843F08073D3601E4B70
:100440001E4A1A601E4800F0E9FB034603F5D52357
:1004500003F2FC437B607B68DB081A4AA2FB0323A0
:100460009B0A3B60184A3B68013B1361164B022212
:10047000C3F8F020144B4FF48072C3F804234FF0FC
:100480006043124AC3F8B02F4FF06043104AC3F8DC
:10049000802E4FF060424FF06043D3F8003E43F0AF
:1004A0000103C2F8003E0837BD4680BD00800C4005
:1004B00000600040F0ED00E0001000E0FF1301409C
:1004C00006000C0017916502000004E055CEACC593
:1004D0000900010080B582B000AF4FF07E637B6001
:1004E0007B681B68002B01D1002302E0FFF768FF47
:1004F000012318460837BD4680BD00BF0648804727
:100500000649074A074B9A42BEBF51F8040B42F80E
:10051000040BF8E7FFF710FE7D060000101700003F
:100520000000002078000020FEE700BF80B400AF8C
:10053000044BDB6C1B0EDBB21846BD465DF8047B3A
:10054000704700BFB081E00F80B582B000AF00F00F
:1005500015F87860074B5B6803F00F031A467B6859
:10056000D3407B60044A7B6813607B681846083779
:10057000BD4680BD00800C400800002080B582B0E0
:1005800000AF334BDB6A03F47053B3F5805F0AD0DE
:10059000B3F5005F03D0B3F5006F08D00BE02D4B2F
:1005A0001B687B6047E04FF400437B6043E02A4BCD
:1005B0001B687B603FE0264BDB6803F4E063B3F528
:1005C000007F1BD0B3F5007F05D8002B24D0B3F5F6
:1005D000807F16D02BE0B3F5806F09D0B3F5A06F04
:1005E00003D0B3F5407F06D021E01C4B7B6021E0B7
:1005F0001B4B7B601EE01B4B7B601BE01A4B7B6040
:1006000018E0FFF793FF0346122B02D9174B7B60CC
:1006100010E0174B7B600DE0FFF788FF0346122BBD
:1006200002D9144B7B6005E0134B7B6002E0002392
:100630007B6000BF00BF064B1B6803F4E0339B0BDD
:1006400001337A68B2FBF3F318460837BD4680BD24
:1006500000800C400400002000000020003FAB019F
:10066000406F4001809FD500C0D8A70040B564000E
:10067000C0CF6A00804F120040420F0080B400AF2C
:10068000BD465DF8047B704780B400AF4FF4004373
:100690001846BD465DF8047B704700BF80B400AFCC
:1006A0004FF47A731846BD465DF8047B704700BF6F
:1006B00080B400AF034B1B681846BD465DF8047B51
:1006C000704700BF0400002080B483B000AF7860A2
:1006D0003960FEE780B487B000AFF860B9607A6037
:1006E000FB6803F10473DA00BB6813449B007B6171
:1006F0007B697A681A601C37BD465DF8047B7047D9
:1007000080B485B000AF786039607B6803F1047312
:10071000DA003B6813449B00FB60FB681B681846CB
:100720001437BD465DF8047B704700BF80B584B0C8
:1007300000AF78607B68002B03D07B68B3F5004F77
:1007400004D9084840F29661FFF7BEFF7B68B3FA10
:1007500083F3C3F11F03FB60FB6818461037BD46E7
:1007600080BD00BF0815000080B400AF044BDB6CF7
:100770001B0EDBB21846BD465DF8047B704700BF18
:10078000B081E00F80B400AF054BDB6C03F47F0356
:100790001B0CDBB21846BD465DF8047B704700BFFA
:1007A000B081E00F80B582B000AFFFF7EBFF0346EA
:1007B0004A2B04D0792B02D0482B21D022E0164BB3
:1007C0001B699BB203F03F039BB21B02FB80124BE1
:1007D0009B6903F0F0039AB2FB881343FB800E4B36
:1007E000DB6903F0F0031B099AB2FB881343FB801B
:1007F000FB88B3F5017F01D3084B09E0084B07E004
:10080000074B05E007484FF48771FFF75DFF0023B2
:1008100018460837BD4680BDD0FF0FE000366E0198
:100820000048E8016C15000080B584B000AF786026
:100830000123FB60FFF7B6FF02467B689A4204D3B0
:100840000023FB600023BB600BE0FFF7ABFF034618
:100850005A007B689A4202D30123BB6001E0022365
:10086000BB6008481E21FA68FFF734FF0549054BB5
:100870005B6823F48072BB681B0213434B60103724
:10088000BD4680BD00800C4080B582B000AF0548F9
:100890001E21FFF735FF78607B6818460837BD4694
:1008A00080BD00BF00800C4080B582B000AF244BFB
:1008B0005B6903F4E063B3F5007F1CD0B3F5007F00
:1008C00005D8002B25D0B3F5807F1FD02AE0B3F5E3
:1008D000C06F24D0B3F5E06F1ED0B3F5407F21D1B7
:1008E000FFF742FF0346122B02D9164B7B6021E033
:1008F000154B7B601EE0FFF737FF0346122B02D932
:10090000124B7B6016E0124B7B6013E0114B7B6057
:1009100010E0114B7B600DE0104B7B600AE0104B48
:100920007B6007E00F484FF4C671FFF7CDFE002350
:100930007B6000BF7B6818460837BD4680BD00BF9E
:1009400000800C40804F120040420F0040B5640010
:10095000C0CF6A00C0D8A700809FD500406F40017B
:10096000003FAB016C15000080B582B000AF0F48AE
:1009700000F046FA0346FB70FB78072B05D0092BE5
:1009800007D1FFF7FBFD78600BE0FFF78DFF786084
:1009900007E007484FF4E371FFF796FE00237B6002
:1009A00000BF7B6818460837BD4680BD06000C00B6
:1009B0006C15000090B585B000AF78600023BB6077
:1009C0007B683B4A934208D03A4A934205D03A4862
:1009D00040F2B531FFF778FE00E000BF786800F024
:1009E0000FFA0346FB607B68314A934203D0314AD9
:1009F000934206D00CE0314B9B6A03F00303FB608B
:100A00000CE02E4B9B6A03F00C039B08FB6005E097
:100A100029484FF47971FFF757FE00BFFB68032B9D
:100A200039D801A252F823F05F0A0000390A000009
:100A3000410A0000490A0000FFF726FEB86032E0D4
:100A4000FFF736FEB8602EE0FFF77EFD0446FFF7A5
:100A50001BFF0346013324FA03F3BB6023E00023AA
:100A6000BB607B68124A934203D07B68114A934271
:100A700010D1124B9A6A7B680D498B4201D1102329
:100A800000E0142322FA03F3002B03D0FFF706FE45
:100A9000B86008E007E0084840F20E41FFF714FE96
:100AA0000023BB6000BFBB6818461437BD4690BD2D
:100AB00002001A0003001C006C15000000800C40AE
:100AC00080B483B000AF7860094B5B6D03F0010325
:100AD000002B00D006E000BF054B1A6D7B68134069
:100AE000002BF9D10C37BD465DF8047B704700BF81
:100AF00000800C4080B582B000AF104800F080F953
:100B00000346FB70FB78032B07D0092B09D0022B7F
:100B10000BD1FFF7CDFD78600AE0FFF7B5FD7860F7
:100B200006E0FFF72BFD786002E000237B6000BF4A
:100B30007B6818460837BD4680BD00BF07232200EA
:100B400080B586B000AF78600B46FB7000233B6138
:100B50007B681B0A03F00F03013B092B33D801A26A
:100B600052F823F0A10B0000A70B00008D0B000032
:100B7000C70B0000C70B0000AD0B0000B70B000057
:100B8000C70B0000C70B0000C10B00001B4B7B61B3
:100B90001B4800F043F803461846FFF745FE18E0EF
:100BA000184B7B6115E0184B7B6112E0174B7B61A2
:100BB00001233B610DE0164B7B6110233B6108E094
:100BC000144B7B6105E014484FF4FB61FFF77CFD9B
:100BD00010E07B681B0B03F01F03FB603B69002BDD
:100BE00002D03869FFF76CFFFB787869F9681A461C
:100BF000FFF770FD1837BD4680BD00BF40800C4038
:100C00000043020008800C4044800C4058800C4097
:100C100060800C4078800C406C15000090B585B069
:100C200000AF78607B6803F47813B3F5B01F00F071
:100C3000AB80B3F5B01F1AD8B3F5402F00F0BF80DA
:100C4000B3F5402F08D8B3F5003F3CD0B3F5802F63
:100C50002DD0002B27D0BEE0B3F5801F3CD0B3F5DC
:100C6000A01F47D0B3F5602F00F0AD80B3E0B3F51F
:100C7000081F00F0AC80B3F5081F0AD8B3F5D01FE9
:100C800025D0B3F5E01F7AD0B3F5C01F00F08980FE
:100C9000A1E0B3F5201F4ED0B3F5281F62D0B3F505
:100CA000181F35D097E0FFF769FCF8609BE0FFF76D
:100CB00065FCF8604E4B9B6803F00F031A46FB6817
:100CC000D340FB608FE0FFF73FFCF8608BE04948C2
:100CD000FFF770FEF86086E04648FFF76BFEF860AD
:100CE000434B9B6E03F0F0031B091A46FB68D3408D
:100CF000FB6078E03F48FFF75DFEF8603C4B9B6E81
:100D000003F470631B0A1A46FB68D340FB606AE079
:100D10003848FFF74FFEF860354B9B6E03F44053A5
:100D20001C0B1020FFF702FD034623441A46FB6804
:100D3000D340FB6057E02F48FFF73CFEF8602C4B98
:100D40009B6E03F440531B0B1A46FB68D340FB60B9
:100D5000274BDB6F03F007030133FA68B2FBF3F3B1
:100D6000FB6040E02348FFF725FEF860204B9B6EB8
:100D700003F003031A46FB68D340FB6033E01E48D0
:100D8000FFF718FEF8602EE01B48FFF713FEF8602F
:100D9000174B1B6F03F003031A46FB68D340FB603D
:100DA00021E01548FFF706FEF860114B1B6F03F0BA
:100DB00030031B091A46FB68D340FB6013E0FFF7C2
:100DC000D3FDF8600FE0FFF76FFDF8600BE0FFF771
:100DD00091FEF86007E0094840F6CC01FFF774FC8B
:100DE0000023FB6000BFFB6818461437BD4690BD6A
:100DF00000800C4002001A0003001C006C1500006B
:100E000080B584B000AF78600123FB737B6803F08A
:100E10000F03BB60BB68013B062B00F2938001A26D
:100E200052F823F0410E0000770E0000B30E0000D0
:100E3000450F0000450F0000EF0E0000110F0000ED
:100E4000474BDB6A03F47053B3F5805F09D0B3F509
:100E5000005F03D0B3F5006F06D008E00223FB73F8
:100E600008E00323FB7305E00423FB7302E0052382
:100E7000FB7300BF6EE03A4B9B6A03F00303022B47
:100E800006D0032B07D0012B08D10323FB730FE0FF
:100E90000223FB730CE00623FB7309E0304B9B6AD3
:100EA00003F48033002B02D00A23FB7300E000BF61
:100EB00050E02B4B9B6A03F00C03082B06D00C2B45
:100EC00007D0042B08D10323FB730FE00223FB732D
:100ED0000CE00623FB7309E0214B9B6A03F48013AB
:100EE000002B02D00A23FB7300E000BF32E01C4B52
:100EF0001B6803F08053002B03D0B3F1805F03D055
:100F000028E00723FB7302E00923FB7300BF21E005
:100F1000134BDB6A03F46033B3F5803F08D0B3F5BD
:100F2000003F08D0B3F5004F08D10923FB7308E058
:100F30000223FB7305E00323FB7302E00123FB7331
:100F400000BF07E007484FF44761FFF7BDFB0023F0
:100F5000FB7300BFFB7B18461037BD4680BD00BF4A
:100F600000800C406C15000080B582B000AF0346D5
:100F70003960FB71FB79002B1FD0FB79012B19D055
:100F8000FB79022B13D0FB79032B0DD0FB79042BBB
:100F900007D0FB79052B02D141F6FF730FE0002348
:100FA0000DE04FF6FF730AE04FF6FF7307E04FF6D0
:100FB000FF7304E04FF6FF7301E04FF6FF733A68EA
:100FC000134103F00103002B04D10B4840F25931C7
:100FD000FFF77AFB0949FA793B68012000FA03F32D
:100FE00018461346DB0013449B000B441033586033
:100FF0000837BD4680BD00BFD0150000006000402E
:1010000080B582B000AF03463960FB71FB79002BDD
:101010001FD0FB79012B19D0FB79022B13D0FB7960
:10102000032B0DD0FB79042B07D0FB79052B02D1C4
:1010300041F6FF730FE000230DE04FF6FF730AE067
:101040004FF6FF7307E04FF6FF7304E04FF6FF73B0
:1010500001E04FF6FF733A68134103F00103002BE0
:1010600004D10B4840F28631FFF72EFB0949FA798B
:101070003B68012000FA03F318461346DB001344D3
:101080009B000B44103318600837BD4680BD00BF7D
:10109000D01500000060004090B585B000AFB96089
:1010A0007B600346FB731346BB73FB7B002B1FD097
:1010B000FB7B012B19D0FB7B022B13D0FB7B032B7B
:1010C0000DD0FB7B042B07D0FB7B052B02D141F617
:1010D000FF730FE000230DE04FF6FF730AE04FF6B9
:1010E000FF7307E04FF6FF7304E04FF6FF7301E074
:1010F0004FF6FF73BA68134103F00103002B04D1CC
:1011000037484FF48571FFF7DFFABB7B002B0DD01A
:101110007B68002B05D0FB7B1846B968FFF770FF92
:1011200004E0FB7B1846B968FFF71EFFBB68072B7E
:101130001CD82C4CFA7B2B48F97B0B46DB000B446C
:101140009B0003445968BB689B0018460F238340EB
:10115000DB430B40B97BB8688000814019431346DC
:10116000DB0013449B002344596024E01D4CFA7BB0
:101170001C48F97B0B46DB000B449B0003440833FF
:101180001968BB6803F18043083B9B0018460F2396
:101190008340DB431940B87BBB6803F18043083BC5
:1011A0009B0000FA03F319431346DB0013449B0032
:1011B000234408331960BB7B002B0DD17B68002BC7
:1011C00005D0FB7B1846B968FFF71AFF04E0FB7BEC
:1011D0001846B968FFF7C8FE1437BD4690BD00BF7A
:1011E000341600000060004080B584B000AF786025
:1011F0007B68002B03D11A483E21FFF765FA194B93
:101200005B69DBB203F00F03DBB29B00FB73154B92
:101210001B6903F0C0039B09DAB2FB7B1343FB732A
:101220007B68FA7B9A700F4B1B69DBB203F03F03BC
:10123000DAB27B685A700B4B9B69DBB223F00F0369
:10124000FB73084BDB6903F0F0031B09DAB2FB7B8D
:101250001343FB737B68FA7B1A701037BD4680BD61
:1012600098160000D0FF0FE080B483B000AF0346B3
:101270003960FB7197F90730002B0BDA0D49FB79C8
:1012800003F00F03043B3A68D2B25201D2B20B44CE
:101290001A7609E0084997F907303A68D2B2520144
:1012A000D2B20B4483F800230C37BD465DF8047BB3
:1012B000704700BF00ED00E000E100E080B582B0C3
:1012C00000AF78607B68013BB3F1807F01D30123DD
:1012D0000FE00A4A7B68013B53604FF0FF30072163
:1012E000FFF7C2FF054B00229A60044B07221A60E9
:1012F000002318460837BD4680BD00BF10E000E05F
:1013000080B400AF044BDB6C1B0EDBB21846BD464D
:101310005DF8047B704700BFB081E00F80B582B0FC
:1013200000AFFFF7EDFF0346FB713B1D1846FFF7CB
:101330005BFFFB790F2B0AD93B79022B07D9054AB2
:10134000044B1B6823F0500343F01003136008376D
:10135000BD4680BDC0800C4080B400AF044B1B680C
:101360000133034A1360BD465DF8047B704700BF3C
:101370009400002080B485B000AF7860074B1B68F4
:10138000FB6000BF054B1A68FB68D21A7B689A4263
:10139000F8D31437BD465DF8047B704794000020F5
:1013A00080B500AFFFF7BAFFFFF794F80F48FFF7DB
:1013B00035FC02460E4BA3FB02239B091846FFF7A0
:1013C0007DFF0346002B00D0FEE7FEF787FF0020DD
:1013D000FEF7B2FF0020FEF7D1FF0120FEF7CEFF9F
:1013E0004FF47A70FFF7C6FFF4E700BF5000020029
:1013F000D34D621008B5074B044613B10021AFF37B
:101400000080054B1868836A03B19847204600F0B6
:1014100033F800BF00000000001700000E4B70B54D
:101420001E460E4C0025E41AA410A54204D056F81E
:10143000253098470135F8E700F020F8084B094CB3
:101440001E46E41AA4100025A54204D056F8253003
:1014500098470135F8E770BD6C0000206C00002053
:101460006C0000207000002003460244934202D02A
:1014700003F8011BFAE77047FEE700BFF8B500BFAD
:10148000F8BC08BC9E467047F8B500BFF8BC08BC65
:101490009E467047633A5C73696C69636F6E6C61FA
:1014A00062735C73696D706C696369747973747568
:1014B00064696F5C76345C646576656C6F706572C8
:1014C0005C73646B735C6765636B6F5F73646B5FA6
:1014D00073756974655C76312E315C706C6174660D
:1014E0006F726D5C656D6C69625C696E635C656D85
:1014F0005F6770696F2E6800040000000200000042
:101500000400000003000000633A5C73696C6963C7
:101510006F6E6C6162735C73696D706C6963697422
:101520007973747564696F5C76345C646576656C38
:101530006F7065725C73646B735C6765636B6F5F20
:1015400073646B5F73756974655C76312E315C70A2
:101550006C6174666F726D5C656D6C69625C696EFE
:10156000635C656D5F636D752E680000433A2F53B1
:10157000696C69636F6E4C6162732F53696D706C37
:10158000696369747953747564696F2F76342F6455
:101590006576656C6F7065722F73646B732F67650A
:1015A000636B6F5F73646B5F73756974652F7631FE
:1015B0002E312F706C6174666F726D2F656D6C6962
:1015C000622F7372632F656D5F636D752E6300000C
:1015D000633A5C73696C69636F6E6C6162735C73B0
:1015E000696D706C696369747973747564696F5C33
:1015F00076345C646576656C6F7065725C73646B81
:10160000735C6765636B6F5F73646B5F737569743D
:10161000655C76312E315C706C6174666F726D5CE6
:10162000656D6C69625C696E635C656D5F6770694E
:101630006F2E6800433A2F53696C69636F6E4C617B
:1016400062732F53696D706C696369747953747533
:1016500064696F2F76342F646576656C6F70657280
:101660002F73646B732F6765636B6F5F73646B5F5E
:1016700073756974652F76312E312F706C617466C5
:101680006F726D2F656D6C69622F7372632F656D5C
:101690005F6770696F2E6300433A2F53696C69630B
:1016A0006F6E4C6162732F53696D706C69636974FE
:1016B0007953747564696F2F76342F646576656C21
:1016C0006F7065722F73646B732F6765636B6F5FE9
:1016D00073646B5F73756974652F76312E312F706B
:1016E0006C6174666F726D2F656D6C69622F7372B9
:1016F000632F656D5F73797374656D2E63004300AE
:081700000C00002000000000B5
:0817080030EAFF7F0100000040
:10171000006CDC0200800000809FD500000000000B
:1017200000000000000000000000000000000000B9
:10173000000000000000000000000000FE16000095
:101740000000000000000000000000000000000099
:101750000000000000000000000000000000000089
:101760000000000000000000000000000000000079
:101770000000000000000000000000000101000067
:08178000DD0000000000000084
:04000003000004FDF8
:00000001FF
